{
  "contractName": "BidContract",
  "abi": [
    {
      "inputs": [
        {
          "internalType": "contract TenderContract",
          "name": "_tenderRef",
          "type": "address"
        }
      ],
      "stateMutability": "nonpayable",
      "type": "constructor"
    },
    {
      "inputs": [
        {
          "internalType": "uint256",
          "name": "",
          "type": "uint256"
        }
      ],
      "name": "bids",
      "outputs": [
        {
          "internalType": "uint256",
          "name": "bidId",
          "type": "uint256"
        },
        {
          "internalType": "string",
          "name": "bidClause",
          "type": "string"
        },
        {
          "internalType": "uint256",
          "name": "quotedAmount",
          "type": "uint256"
        },
        {
          "internalType": "address",
          "name": "bidderAddress",
          "type": "address"
        },
        {
          "internalType": "uint256",
          "name": "tenderId",
          "type": "uint256"
        },
        {
          "internalType": "enum BidContract.BidStatus",
          "name": "bidStatus",
          "type": "uint8"
        },
        {
          "internalType": "uint256",
          "name": "createdAt",
          "type": "uint256"
        },
        {
          "internalType": "bool",
          "name": "isExists",
          "type": "bool"
        }
      ],
      "stateMutability": "view",
      "type": "function",
      "constant": true
    },
    {
      "inputs": [],
      "name": "tenderRef",
      "outputs": [
        {
          "internalType": "contract TenderContract",
          "name": "",
          "type": "address"
        }
      ],
      "stateMutability": "view",
      "type": "function",
      "constant": true
    },
    {
      "inputs": [
        {
          "internalType": "uint256",
          "name": "_bidId",
          "type": "uint256"
        }
      ],
      "name": "getBidderAddress",
      "outputs": [
        {
          "internalType": "address",
          "name": "",
          "type": "address"
        }
      ],
      "stateMutability": "view",
      "type": "function",
      "constant": true
    },
    {
      "inputs": [
        {
          "internalType": "address",
          "name": "_bidderAddress",
          "type": "address"
        },
        {
          "internalType": "uint256",
          "name": "_tenderId",
          "type": "uint256"
        },
        {
          "internalType": "string",
          "name": "_bidClause",
          "type": "string"
        },
        {
          "internalType": "uint256",
          "name": "_quotedAmount",
          "type": "uint256"
        }
      ],
      "name": "createBid",
      "outputs": [],
      "stateMutability": "nonpayable",
      "type": "function"
    },
    {
      "inputs": [
        {
          "internalType": "address",
          "name": "_partyAddress",
          "type": "address"
        },
        {
          "internalType": "uint256",
          "name": "_tenderId",
          "type": "uint256"
        },
        {
          "internalType": "uint256",
          "name": "_bidId",
          "type": "uint256"
        }
      ],
      "name": "getBidDetails",
      "outputs": [
        {
          "components": [
            {
              "internalType": "uint256",
              "name": "bidId",
              "type": "uint256"
            },
            {
              "internalType": "string",
              "name": "bidClause",
              "type": "string"
            },
            {
              "internalType": "uint256",
              "name": "quotedAmount",
              "type": "uint256"
            },
            {
              "internalType": "address",
              "name": "bidderAddress",
              "type": "address"
            },
            {
              "internalType": "uint256",
              "name": "tenderId",
              "type": "uint256"
            },
            {
              "internalType": "enum BidContract.BidStatus",
              "name": "bidStatus",
              "type": "uint8"
            },
            {
              "internalType": "uint256",
              "name": "createdAt",
              "type": "uint256"
            },
            {
              "internalType": "bool",
              "name": "isExists",
              "type": "bool"
            }
          ],
          "internalType": "struct BidContract.Bid",
          "name": "",
          "type": "tuple"
        }
      ],
      "stateMutability": "view",
      "type": "function",
      "constant": true
    },
    {
      "inputs": [
        {
          "internalType": "address",
          "name": "_bidderAddress",
          "type": "address"
        }
      ],
      "name": "getMyBids",
      "outputs": [
        {
          "components": [
            {
              "internalType": "uint256",
              "name": "bidId",
              "type": "uint256"
            },
            {
              "internalType": "string",
              "name": "bidClause",
              "type": "string"
            },
            {
              "internalType": "uint256",
              "name": "quotedAmount",
              "type": "uint256"
            },
            {
              "internalType": "address",
              "name": "bidderAddress",
              "type": "address"
            },
            {
              "internalType": "uint256",
              "name": "tenderId",
              "type": "uint256"
            },
            {
              "internalType": "enum BidContract.BidStatus",
              "name": "bidStatus",
              "type": "uint8"
            },
            {
              "internalType": "uint256",
              "name": "createdAt",
              "type": "uint256"
            },
            {
              "internalType": "bool",
              "name": "isExists",
              "type": "bool"
            }
          ],
          "internalType": "struct BidContract.Bid[]",
          "name": "",
          "type": "tuple[]"
        },
        {
          "internalType": "uint256",
          "name": "",
          "type": "uint256"
        }
      ],
      "stateMutability": "view",
      "type": "function",
      "constant": true
    },
    {
      "inputs": [
        {
          "internalType": "address",
          "name": "_partyAddress",
          "type": "address"
        },
        {
          "internalType": "uint256",
          "name": "_tenderId",
          "type": "uint256"
        }
      ],
      "name": "getAllBids",
      "outputs": [
        {
          "components": [
            {
              "internalType": "uint256",
              "name": "bidId",
              "type": "uint256"
            },
            {
              "internalType": "string",
              "name": "bidClause",
              "type": "string"
            },
            {
              "internalType": "uint256",
              "name": "quotedAmount",
              "type": "uint256"
            },
            {
              "internalType": "address",
              "name": "bidderAddress",
              "type": "address"
            },
            {
              "internalType": "uint256",
              "name": "tenderId",
              "type": "uint256"
            },
            {
              "internalType": "enum BidContract.BidStatus",
              "name": "bidStatus",
              "type": "uint8"
            },
            {
              "internalType": "uint256",
              "name": "createdAt",
              "type": "uint256"
            },
            {
              "internalType": "bool",
              "name": "isExists",
              "type": "bool"
            }
          ],
          "internalType": "struct BidContract.Bid[]",
          "name": "",
          "type": "tuple[]"
        }
      ],
      "stateMutability": "view",
      "type": "function",
      "constant": true
    },
    {
      "inputs": [
        {
          "internalType": "address",
          "name": "_partyAddress",
          "type": "address"
        },
        {
          "internalType": "uint256",
          "name": "_tenderId",
          "type": "uint256"
        },
        {
          "internalType": "uint256",
          "name": "_bidAddress",
          "type": "uint256"
        },
        {
          "internalType": "enum BidContract.BidStatus",
          "name": "_bidStatus",
          "type": "uint8"
        }
      ],
      "name": "updateBidStatus",
      "outputs": [],
      "stateMutability": "nonpayable",
      "type": "function"
    },
    {
      "inputs": [
        {
          "internalType": "address",
          "name": "_bidderAddress",
          "type": "address"
        },
        {
          "internalType": "uint256",
          "name": "_bidId",
          "type": "uint256"
        },
        {
          "internalType": "string",
          "name": "_bidClause",
          "type": "string"
        },
        {
          "internalType": "uint256",
          "name": "_quotedAmount",
          "type": "uint256"
        }
      ],
      "name": "updateBid",
      "outputs": [],
      "stateMutability": "nonpayable",
      "type": "function"
    },
    {
      "inputs": [
        {
          "internalType": "address",
          "name": "_bidderAddress",
          "type": "address"
        },
        {
          "internalType": "uint256",
          "name": "_tenderId",
          "type": "uint256"
        },
        {
          "internalType": "uint256",
          "name": "_bidId",
          "type": "uint256"
        }
      ],
      "name": "deleteBid",
      "outputs": [],
      "stateMutability": "nonpayable",
      "type": "function"
    },
    {
      "inputs": [
        {
          "internalType": "address",
          "name": "_partyAddress",
          "type": "address"
        },
        {
          "internalType": "uint256",
          "name": "_tenderId",
          "type": "uint256"
        }
      ],
      "name": "selectTopBids",
      "outputs": [
        {
          "components": [
            {
              "internalType": "uint256",
              "name": "bidId",
              "type": "uint256"
            },
            {
              "internalType": "string",
              "name": "bidClause",
              "type": "string"
            },
            {
              "internalType": "uint256",
              "name": "quotedAmount",
              "type": "uint256"
            },
            {
              "internalType": "address",
              "name": "bidderAddress",
              "type": "address"
            },
            {
              "internalType": "uint256",
              "name": "tenderId",
              "type": "uint256"
            },
            {
              "internalType": "enum BidContract.BidStatus",
              "name": "bidStatus",
              "type": "uint8"
            },
            {
              "internalType": "uint256",
              "name": "createdAt",
              "type": "uint256"
            },
            {
              "internalType": "bool",
              "name": "isExists",
              "type": "bool"
            }
          ],
          "internalType": "struct BidContract.Bid[]",
          "name": "",
          "type": "tuple[]"
        }
      ],
      "stateMutability": "view",
      "type": "function",
      "constant": true
    },
    {
      "inputs": [
        {
          "internalType": "address",
          "name": "_partyAddress",
          "type": "address"
        },
        {
          "internalType": "uint256",
          "name": "_tenderId",
          "type": "uint256"
        },
        {
          "internalType": "uint256",
          "name": "_bidId",
          "type": "uint256"
        }
      ],
      "name": "finaliseWinnerBid",
      "outputs": [],
      "stateMutability": "nonpayable",
      "type": "function"
    }
  ],
  "bytecode": "0x608060405260006001553480156200001657600080fd5b506040516200268a3803806200268a83398101604081905262000039916200005f565b600280546001600160a01b0319166001600160a01b039290921691909117905562000091565b6000602082840312156200007257600080fd5b81516001600160a01b03811681146200008a57600080fd5b9392505050565b6125e980620000a16000396000f3fe608060405234801561001057600080fd5b50600436106100d45760003560e01c80638d5b861211610081578063ebc25fa61161005b578063ebc25fa6146101ee578063f91b6ae51461020f578063fd140a951461022257600080fd5b80638d5b8612146101a8578063bb693c4d146101bb578063eac24737146101ce57600080fd5b80635fa38280116100b25780635fa382801461013157806361281516146101755780636dc4d10c1461019557600080fd5b8063167548c5146100d957806326b26e56146100ee5780634423c5f114610101575b600080fd5b6100ec6100e736600461201e565b610235565b005b6100ec6100fc3660046120d7565b6103c3565b61011461010f36600461210c565b610637565b60405161012898979695949392919061219c565b60405180910390f35b61015d61013f36600461210c565b6000908152602081905260409020600301546001600160a01b031690565b6040516001600160a01b039091168152602001610128565b6101886101833660046121fc565b610713565b60405161012891906122fa565b6100ec6101a3366004612314565b610abe565b60025461015d906001600160a01b031681565b6100ec6101c93660046120d7565b610be6565b6101e16101dc3660046120d7565b610f16565b6040516101289190612362565b6102016101fc366004612375565b6111d6565b604051610128929190612392565b6100ec61021d36600461201e565b61151e565b6101886102303660046121fc565b611ab0565b600083815260208190526040902060030154849084906001600160a01b038084169116146102bf5760405162461bcd60e51b815260206004820152602c60248201527f796f75277265206e6f7420617574686f72697a656420746f20706572666f726d60448201526b103a3434b99030b1ba34b7b760a11b60648201526084015b60405180910390fd5b60008581526020819052604090206002015461031d5760405162461bcd60e51b815260206004820152601f60248201527f6269642077697468206164647265737320646f65736e2774206578697374730060448201526064016102b6565b60008581526020819052604081206005015460ff16600281111561034357610343612172565b146103905760405162461bcd60e51b815260206004820152601560248201527f6269642063616e6e6f742062652075706461746564000000000000000000000060448201526064016102b6565b600085815260208181526040909120855190916103b4916001840191880190611ec7565b50600201929092555050505050565b600254604051637e4d2d9760e01b815260048101849052849184916000916001600160a01b031690637e4d2d9790602401602060405180830381865afa158015610411573d6000803e3d6000fd5b505050506040513d601f19601f8201168201806040525081019061043591906123b4565b9050826001600160a01b0316816001600160a01b0316146104ad5760405162461bcd60e51b815260206004820152602c60248201527f796f75277265206e6f7420617574686f72697a656420746f20706572666f726d60448201526b103a3434b99030b1ba34b7b760a11b60648201526084016102b6565b6002546040516342222a4360e01b8152600481018790526000916001600160a01b0316906342222a4390602401600060405180830381865afa1580156104f7573d6000803e3d6000fd5b505050506040513d6000823e601f3d908101601f1916820160405261051f91908101906123d1565b905060005b81518110156105b0578582828151811061054057610540612477565b60200260200101510361057857610573888884848151811061056457610564612477565b60200260200101516002610abe565b61059e565b61059e888884848151811061058f5761058f612477565b60200260200101516001610abe565b806105a8816124a3565b915050610524565b506002546040517faaaf41880000000000000000000000000000000000000000000000000000000081526001600160a01b039091169063aaaf4188906105fc90899060049081016124bc565b600060405180830381600087803b15801561061657600080fd5b505af115801561062a573d6000803e3d6000fd5b5050505050505050505050565b60006020819052908152604090208054600182018054919291610659906124e0565b80601f0160208091040260200160405190810160405280929190818152602001828054610685906124e0565b80156106d25780601f106106a7576101008083540402835291602001916106d2565b820191906000526020600020905b8154815290600101906020018083116106b557829003601f168201915b50505060028401546003850154600486015460058701546006880154600790980154969793966001600160a01b03909316955090935060ff90811692911688565b600254604051637e4d2d9760e01b815260048101839052606091849184916000916001600160a01b0390911690637e4d2d9790602401602060405180830381865afa158015610766573d6000803e3d6000fd5b505050506040513d601f19601f8201168201806040525081019061078a91906123b4565b9050826001600160a01b0316816001600160a01b0316146108025760405162461bcd60e51b815260206004820152602c60248201527f796f75277265206e6f7420617574686f72697a656420746f20706572666f726d60448201526b103a3434b99030b1ba34b7b760a11b60648201526084016102b6565b6002546040516342222a4360e01b8152600481018790526000916001600160a01b0316906342222a4390602401600060405180830381865afa15801561084c573d6000803e3d6000fd5b505050506040513d6000823e601f3d908101601f1916820160405261087491908101906123d1565b905060008151116108b85760405162461bcd60e51b815260206004820152600e60248201526d4e6f20626964732065786973747360901b60448201526064016102b6565b6000815167ffffffffffffffff8111156108d4576108d4611fd7565b60405190808252806020026020018201604052801561090d57816020015b6108fa611f4b565b8152602001906001900390816108f25790505b50905060005b8251811015610ab25760008181526020819052604090206007015460ff161515600103610aa05760008084838151811061094f5761094f612477565b60200260200101518152602001908152602001600020604051806101000160405290816000820154815260200160018201805461098b906124e0565b80601f01602080910402602001604051908101604052809291908181526020018280546109b7906124e0565b8015610a045780601f106109d957610100808354040283529160200191610a04565b820191906000526020600020905b8154815290600101906020018083116109e757829003601f168201915b5050509183525050600282810154602083015260038301546001600160a01b0316604083015260048301546060830152600583015460809092019160ff1690811115610a5257610a52612172565b6002811115610a6357610a63612172565b81526006820154602082015260079091015460ff1615156040909101528251839083908110610a9457610a94612477565b60200260200101819052505b80610aaa816124a3565b915050610913565b50979650505050505050565b600254604051637e4d2d9760e01b815260048101859052859185916000916001600160a01b031690637e4d2d9790602401602060405180830381865afa158015610b0c573d6000803e3d6000fd5b505050506040513d601f19601f82011682018060405250810190610b3091906123b4565b9050826001600160a01b0316816001600160a01b031614610ba85760405162461bcd60e51b815260206004820152602c60248201527f796f75277265206e6f7420617574686f72697a656420746f20706572666f726d60448201526b103a3434b99030b1ba34b7b760a11b60648201526084016102b6565b600085815260208190526040902060058101805486919060ff19166001836002811115610bd757610bd7612172565b02179055505050505050505050565b600081815260208190526040902060030154839082906001600160a01b03808416911614610c6b5760405162461bcd60e51b815260206004820152602c60248201527f796f75277265206e6f7420617574686f72697a656420746f20706572666f726d60448201526b103a3434b99030b1ba34b7b760a11b60648201526084016102b6565b6002546040516342222a4360e01b8152600481018690526000916001600160a01b0316906342222a4390602401600060405180830381865afa158015610cb5573d6000803e3d6000fd5b505050506040513d6000823e601f3d908101601f19168201604052610cdd91908101906123d1565b90506000815111610d215760405162461bcd60e51b815260206004820152600e60248201526d4e6f20626964732065786973747360901b60448201526064016102b6565b600084815260208190526040902060020154610d7f5760405162461bcd60e51b815260206004820152601f60248201527f6269642077697468206164647265737320646f65736e2774206578697374730060448201526064016102b6565b60008481526020819052604081206005015460ff166002811115610da557610da5612172565b14610df25760405162461bcd60e51b815260206004820152601560248201527f6269642063616e6e6f742062652064656c65746564000000000000000000000060448201526064016102b6565b6000848152602081905260408120600701805460ff191690555b8151811015610f0d5784828281518110610e2857610e28612477565b602002602001015103610efb578160018351610e44919061251a565b81518110610e5457610e54612477565b6020026020010151828281518110610e6e57610e6e612477565b60209081029190910101526002546040517f897bb9790000000000000000000000000000000000000000000000000000000081526001600160a01b039091169063897bb97990610ec49085908a90600401612531565b600060405180830381600087803b158015610ede57600080fd5b505af1158015610ef2573d6000803e3d6000fd5b50505050610f0d565b80610f05816124a3565b915050610e0c565b50505050505050565b610f1e611f4b565b600254604051637e4d2d9760e01b8152600481018590528591859185916000916001600160a01b0390911690637e4d2d9790602401602060405180830381865afa158015610f70573d6000803e3d6000fd5b505050506040513d601f19601f82011682018060405250810190610f9491906123b4565b6000838152602081905260409020600301549091506001600160a01b0385811691161480610fd35750836001600160a01b0316816001600160a01b0316145b6110455760405162461bcd60e51b815260206004820152602260248201527f4e6f7420617574686f72697a656420746f20766965772062696420646574616960448201527f6c7300000000000000000000000000000000000000000000000000000000000060648201526084016102b6565b6000868152602081905260409020600201546110a35760405162461bcd60e51b815260206004820152601260248201527f42696420646f6573206e6f74206578697374000000000000000000000000000060448201526064016102b6565b60008681526020818152604091829020825161010081019093528054835260018101805491928401916110d5906124e0565b80601f0160208091040260200160405190810160405280929190818152602001828054611101906124e0565b801561114e5780601f106111235761010080835404028352916020019161114e565b820191906000526020600020905b81548152906001019060200180831161113157829003601f168201915b5050509183525050600282810154602083015260038301546001600160a01b0316604083015260048301546060830152600583015460809092019160ff169081111561119c5761119c612172565b60028111156111ad576111ad612172565b81526006820154602082015260079091015460ff16151560409091015298975050505050505050565b6060600082336001600160a01b038216146112335760405162461bcd60e51b815260206004820152601360248201527f43616c6c6572206973206e6f74206f776e65720000000000000000000000000060448201526064016102b6565b6000600154116112855760405162461bcd60e51b815260206004820152600d60248201527f4e6f20626964732065786973740000000000000000000000000000000000000060448201526064016102b6565b600080600260009054906101000a90046001600160a01b03166001600160a01b0316635850b3836040518163ffffffff1660e01b8152600401602060405180830381865afa1580156112db573d6000803e3d6000fd5b505050506040513d601f19601f820116820180604052508101906112ff9190612579565b67ffffffffffffffff81111561131757611317611fd7565b60405190808252806020026020018201604052801561135057816020015b61133d611f4b565b8152602001906001900390816113355790505b50905060005b6001548110156115135760008181526020819052604090206007015460ff16151560011480156113a257506000818152602081905260409020600301546001600160a01b038881169116145b1561150157826113b1816124a3565b93505060008082815260200190815260200160002060405180610100016040529081600082015481526020016001820180546113ec906124e0565b80601f0160208091040260200160405190810160405280929190818152602001828054611418906124e0565b80156114655780601f1061143a57610100808354040283529160200191611465565b820191906000526020600020905b81548152906001019060200180831161144857829003601f168201915b5050509183525050600282810154602083015260038301546001600160a01b0316604083015260048301546060830152600583015460809092019160ff16908111156114b3576114b3612172565b60028111156114c4576114c4612172565b81526006820154602082015260079091015460ff16151560409091015282518390839081106114f5576114f5612477565b60200260200101819052505b8061150b816124a3565b915050611356565b509350915050915091565b6002546040517f4008f9c000000000000000000000000000000000000000000000000000000000815260048101859052600f916001600160a01b031690634008f9c090602401602060405180830381865afa158015611581573d6000803e3d6000fd5b505050506040513d601f19601f820116820180604052508101906115a59190612579565b11156116195760405162461bcd60e51b815260206004820152602560248201527f4d6178696d756d206269647320666f7220746869732074656e6465722065786360448201527f656564656400000000000000000000000000000000000000000000000000000060648201526084016102b6565b6002546040517f2e4ea4c4000000000000000000000000000000000000000000000000000000008152600481018590526000916001600160a01b031690632e4ea4c490602401602060405180830381865afa15801561167c573d6000803e3d6000fd5b505050506040513d601f19601f820116820180604052508101906116a09190612579565b60025460405163354133f760e01b8152600481018790529192506000916001600160a01b039091169063354133f790602401602060405180830381865afa1580156116ef573d6000803e3d6000fd5b505050506040513d601f19601f820116820180604052508101906117139190612592565b600254604051638286227560e01b8152600481018890529192506000916001600160a01b0390911690638286227590602401602060405180830381865afa158015611762573d6000803e3d6000fd5b505050506040513d601f19601f820116820180604052508101906117869190612579565b600254604051637e4d2d9760e01b8152600481018990529192506000916001600160a01b0390911690637e4d2d9790602401602060405180830381865afa1580156117d5573d6000803e3d6000fd5b505050506040513d601f19601f820116820180604052508101906117f991906123b4565b90506000841161184b5760405162461bcd60e51b815260206004820152601560248201527f54656e64657220646f6573206e6f74206578697374000000000000000000000060448201526064016102b6565b600183600481111561185f5761185f612172565b146118ac5760405162461bcd60e51b815260206004820152601b60248201527f54656e646572206973206e6f74206f70656e20666f722062696473000000000060448201526064016102b6565b8142106118fb5760405162461bcd60e51b815260206004820152601160248201527f42696464696e672068617320656e64656400000000000000000000000000000060448201526064016102b6565b806001600160a01b0316886001600160a01b0316036119815760405162461bcd60e51b8152602060048201526024808201527f4f776e65722063616e6e6f7420626964206f6e207468656972206f776e20746560448201527f6e6465720000000000000000000000000000000000000000000000000000000060648201526084016102b6565b60018054600081815260208181526040909120918255885191926119ab92908401918a0190611ec7565b5060028181018790556003820180547fffffffffffffffffffffffff0000000000000000000000000000000000000000166001600160a01b038c81169190911790915560048084018b905560058401805460ff199081169091554260068601556007850180549091166001908117909155925492546040517ff1d8ef4d0000000000000000000000000000000000000000000000000000000081529182018c9052602482015291169063f1d8ef4d90604401600060405180830381600087803b158015611a7757600080fd5b505af1158015611a8b573d6000803e3d6000fd5b505060018054925090506000611aa0836124a3565b9190505550505050505050505050565b600254604051637e4d2d9760e01b815260048101839052606091849184916000916001600160a01b0390911690637e4d2d9790602401602060405180830381865afa158015611b03573d6000803e3d6000fd5b505050506040513d601f19601f82011682018060405250810190611b2791906123b4565b9050826001600160a01b0316816001600160a01b031614611b9f5760405162461bcd60e51b815260206004820152602c60248201527f796f75277265206e6f7420617574686f72697a656420746f20706572666f726d60448201526b103a3434b99030b1ba34b7b760a11b60648201526084016102b6565b600254604051638286227560e01b81526004810187905286916000916001600160a01b0390911690638286227590602401602060405180830381865afa158015611bed573d6000803e3d6000fd5b505050506040513d601f19601f82011682018060405250810190611c119190612579565b60025460405163354133f760e01b8152600481018590529192506000916001600160a01b039091169063354133f790602401602060405180830381865afa158015611c60573d6000803e3d6000fd5b505050506040513d601f19601f82011682018060405250810190611c849190612592565b9050814210158015611ca757506002816004811115611ca557611ca5612172565b145b611cb057600080fd5b6000611cbc8a8a610713565b90506000815111611d005760405162461bcd60e51b815260206004820152600e60248201526d4e6f20626964732065786973747360901b60448201526064016102b6565b60015b8151811015611df35760005b81811015611de057828181518110611d2957611d29612477565b602002602001015160400151838381518110611d4757611d47612477565b6020026020010151604001511015611dce576000838381518110611d6d57611d6d612477565b60200260200101519050838281518110611d8957611d89612477565b6020026020010151848481518110611da357611da3612477565b602002602001018190525080848381518110611dc157611dc1612477565b6020026020010181905250505b80611dd8816124a3565b915050611d0f565b5080611deb816124a3565b915050611d03565b5060006005825110611e06576005611e09565b81515b905060008167ffffffffffffffff811115611e2657611e26611fd7565b604051908082528060200260200182016040528015611e5f57816020015b611e4c611f4b565b815260200190600190039081611e445790505b50905060005b82811015611eb757838181518110611e7f57611e7f612477565b6020026020010151828281518110611e9957611e99612477565b60200260200101819052508080611eaf906124a3565b915050611e65565b509b9a5050505050505050505050565b828054611ed3906124e0565b90600052602060002090601f016020900481019282611ef55760008555611f3b565b82601f10611f0e57805160ff1916838001178555611f3b565b82800160010185558215611f3b579182015b82811115611f3b578251825591602001919060010190611f20565b50611f47929150611faa565b5090565b60405180610100016040528060008152602001606081526020016000815260200160006001600160a01b031681526020016000815260200160006002811115611f9657611f96612172565b815260006020820181905260409091015290565b5b80821115611f475760008155600101611fab565b6001600160a01b0381168114611fd457600080fd5b50565b634e487b7160e01b600052604160045260246000fd5b604051601f8201601f1916810167ffffffffffffffff8111828210171561201657612016611fd7565b604052919050565b6000806000806080858703121561203457600080fd5b843561203f81611fbf565b93506020858101359350604086013567ffffffffffffffff8082111561206457600080fd5b818801915088601f83011261207857600080fd5b81358181111561208a5761208a611fd7565b61209c601f8201601f19168501611fed565b915080825289848285010111156120b257600080fd5b8084840185840137600090820190930192909252509396929550929360600135925050565b6000806000606084860312156120ec57600080fd5b83356120f781611fbf565b95602085013595506040909401359392505050565b60006020828403121561211e57600080fd5b5035919050565b6000815180845260005b8181101561214b5760208185018101518683018201520161212f565b8181111561215d576000602083870101525b50601f01601f19169290920160200192915050565b634e487b7160e01b600052602160045260246000fd5b6003811061219857612198612172565b9052565b60006101008a83528060208401526121b68184018b612125565b9150508760408301526001600160a01b03871660608301528560808301526121e160a0830186612188565b8360c083015282151560e08301529998505050505050505050565b6000806040838503121561220f57600080fd5b823561221a81611fbf565b946020939093013593505050565b600061010082518452602083015181602086015261224882860182612125565b915050604083015160408501526001600160a01b0360608401511660608501526080830151608085015260a083015161228460a0860182612188565b5060c083015160c085015260e0830151151560e08501528091505092915050565b600081518084526020808501808196508360051b8101915082860160005b858110156122ed5782840389526122db848351612228565b988501989350908401906001016122c3565b5091979650505050505050565b60208152600061230d60208301846122a5565b9392505050565b6000806000806080858703121561232a57600080fd5b843561233581611fbf565b9350602085013592506040850135915060608501356003811061235757600080fd5b939692955090935050565b60208152600061230d6020830184612228565b60006020828403121561238757600080fd5b813561230d81611fbf565b6040815260006123a560408301856122a5565b90508260208301529392505050565b6000602082840312156123c657600080fd5b815161230d81611fbf565b600060208083850312156123e457600080fd5b825167ffffffffffffffff808211156123fc57600080fd5b818501915085601f83011261241057600080fd5b81518181111561242257612422611fd7565b8060051b9150612433848301611fed565b818152918301840191848101908884111561244d57600080fd5b938501935b8385101561246b57845182529385019390850190612452565b98975050505050505050565b634e487b7160e01b600052603260045260246000fd5b634e487b7160e01b600052601160045260246000fd5b6000600182016124b5576124b561248d565b5060010190565b82815260408101600583106124d3576124d3612172565b8260208301529392505050565b600181811c908216806124f457607f821691505b60208210810361251457634e487b7160e01b600052602260045260246000fd5b50919050565b60008282101561252c5761252c61248d565b500390565b604080825283519082018190526000906020906060840190828701845b8281101561256a5781518452928401929084019060010161254e565b50505092019290925292915050565b60006020828403121561258b57600080fd5b5051919050565b6000602082840312156125a457600080fd5b81516005811061230d57600080fdfea26469706673582212208ce614cb96de45dbb151538d0e6a9eaf9293995b0253e1f45ea606b62884d13364736f6c634300080d0033",
  "immutableReferences": {},
  "source": "// SPDX-License-Identifier: UNLICENSED\n\n//the version of solidity that is compatible\npragma solidity ^0.8.0;\npragma experimental ABIEncoderV2;\n\nimport \"./TenderContract.sol\";\n\ncontract BidContract {\n    enum BidStatus{PENDING, REJECTED, APPROVED}\n\n    // Bidding Struct\n    struct Bid {\n        uint256 bidId;\n        string bidClause;\n        uint256 quotedAmount;\n        address bidderAddress;\n        uint256 tenderId;\n        BidStatus bidStatus;\n        uint256 createdAt;\n        bool isExists;\n    }\n\n    mapping (uint256 => Bid) public bids;\n    uint256 bidCount = 0;\n    TenderContract public tenderRef;\n\n    constructor(TenderContract _tenderRef){\n        tenderRef = _tenderRef;\n    }\n\n    //setters and getters\n    function getBidderAddress(uint256 _bidId) public view returns(address) {\n        return bids[_bidId].bidderAddress;\n    }\n\n    modifier isOwner(address owner) {\n        require(msg.sender == owner, \"Caller is not owner\");\n        _;\n    }\n\n    modifier isTenderOwner(address _partyAddress, uint256 _tenderId) {\n        address issuerAddress = tenderRef.getIssuerAddress(_tenderId);\n        require(issuerAddress == _partyAddress, \"you're not authorized to perform this action\");\n        _;\n    }\n\n    modifier isBidOwner(address _bidderAddress, uint256 _bidId) {\n        require(bids[_bidId].bidderAddress == _bidderAddress, \"you're not authorized to perform this action\");\n        _;\n    }\n\n    function createBid(address _bidderAddress, uint256 _tenderId, string memory _bidClause, uint256 _quotedAmount) public{\n        // Tender storage _tender = tenderRef.tenders(_tenderId);\n        require(tenderRef.getBidsCount(_tenderId) <= 15, \"Maximum bids for this tender exceeded\");\n        uint256 _budget = tenderRef.getBudget(_tenderId);\n        TenderStatus _tenderStatus = tenderRef.getTenderStatus(_tenderId);\n        uint256 _deadline = tenderRef.getDeadline(_tenderId);\n        address _issuerAddress = tenderRef.getIssuerAddress(_tenderId);\n        require(_budget > 0, \"Tender does not exist\");\n        require(_tenderStatus == TenderStatus.OPEN, \"Tender is not open for bids\");\n        require(block.timestamp < _deadline, \"Bidding has ended\");\n        require(_bidderAddress != _issuerAddress, \"Owner cannot bid on their own tender\");\n\n        Bid storage newBid = bids[bidCount];\n        newBid.bidId = bidCount;\n        newBid.bidClause = _bidClause;\n        newBid.quotedAmount = _quotedAmount;\n        newBid.bidderAddress = _bidderAddress;\n        newBid.tenderId = _tenderId;\n        newBid.bidStatus = BidStatus.PENDING;\n        newBid.createdAt = block.timestamp;\n        newBid.isExists = true;\n        tenderRef.addBidId(_tenderId, bidCount);\n        bidCount++;\n    }\n\n    modifier canViewBid(address _partyAddress ,uint256 _tenderId, uint256 _bidId){\n        address issuerAddress = tenderRef.getIssuerAddress(_tenderId);\n        require((bids[_bidId].bidderAddress == _partyAddress  || issuerAddress == _partyAddress), \"Not authorized to view bid details\");\n        _;\n    }\n\n    // For getting bid details like message, amount, address of bidders \n    function getBidDetails(address _partyAddress ,uint256 _tenderId, uint256 _bidId) public view canViewBid(_partyAddress, _tenderId, _bidId) returns (Bid memory) {\n\t    require(bids[_bidId].quotedAmount > 0, \"Bid does not exist\");\n    \treturn (bids[_bidId]);\n    }\n\n    function getMyBids(address _bidderAddress) public view isOwner(_bidderAddress) returns(Bid[] memory, uint){\n        require(bidCount > 0, \"No bids exist\");\n        uint count =0;\n        Bid[] memory bidsList = new Bid[](tenderRef.getTenderCount());\n        for (uint256 i = 0; i < bidCount; i++) {\n            if(bids[i].isExists == true && bids[i].bidderAddress == _bidderAddress){\n                count++;\n                bidsList[i] = bids[i];\n            }\n                \n        }\n        return(bidsList, count);\n    }\n\n    // For getting all bids of a tender\n    function getAllBids(address _partyAddress, uint256 _tenderId) public view isTenderOwner(_partyAddress, _tenderId) returns(Bid[] memory){\n        uint256[] memory tenderBidIds = tenderRef.getBidIds(_tenderId);\n        require(tenderBidIds.length > 0, \"No bids exists\");\n        Bid[] memory bidsList = new Bid[](tenderBidIds.length);\n        for (uint256 i = 0; i < tenderBidIds.length; i++) {\n            if(bids[i].isExists == true) {\n                bidsList[i] = bids[tenderBidIds[i]];\n            }\n        }\n        return(bidsList);\n    }\n\n    function updateBidStatus(address _partyAddress, uint256 _tenderId, uint256 _bidAddress ,BidStatus _bidStatus) public isTenderOwner(_partyAddress, _tenderId) {\n        Bid storage updatedBid = bids[_bidAddress];\n        updatedBid.bidStatus = _bidStatus;\n    }\n\n    function updateBid(address _bidderAddress, uint256 _bidId, string memory _bidClause, uint256 _quotedAmount) public isBidOwner(_bidderAddress, _bidId) {\n        require(bids[_bidId].quotedAmount > 0 , \"bid with address doesn't exists\");\n        require(bids[_bidId].bidStatus == BidStatus.PENDING , \"bid cannot be updated\");\n        Bid storage updatedBid = bids[_bidId];\n        updatedBid.bidClause = _bidClause;\n        updatedBid.quotedAmount = _quotedAmount;\n    }\n\n    function deleteBid(address _bidderAddress, uint256 _tenderId ,uint256 _bidId) public isBidOwner(_bidderAddress, _bidId){ \n        uint256[] memory tenderBidIds = tenderRef.getBidIds(_tenderId);\n        require(tenderBidIds.length > 0, \"No bids exists\");\n        require(bids[_bidId].quotedAmount > 0 , \"bid with address doesn't exists\");\n        require(bids[_bidId].bidStatus == BidStatus.PENDING , \"bid cannot be deleted\");\n        bids[_bidId].isExists = false;\n        // delete bids[_bidId];\n        // tenderRef.deleteBidId(_tenderId, _bidId);         \n        for(uint256 i=0;i<tenderBidIds.length;i++){\n            if(tenderBidIds[i] == _bidId){\n                tenderBidIds[i] = tenderBidIds[tenderBidIds.length -1];\n                tenderRef.setBidIds(tenderBidIds, _tenderId);\n                break;\n            }\n        }    \n    }\n\n    modifier isValidTender(uint256 tenderId) {\n        uint256 _deadline = tenderRef.getDeadline(tenderId);\n        TenderStatus _tenderStatus = tenderRef.getTenderStatus(tenderId);\n        require(block.timestamp >= _deadline && _tenderStatus == TenderStatus.CLOSED);\n        _;\n    }\n\n    function selectTopBids(address _partyAddress, uint256 _tenderId ) public view isTenderOwner(_partyAddress, _tenderId) isValidTender(_tenderId) returns (Bid[] memory) {\n        //invoke this function once deadline is crossed and can be invoked by project issue party, make sure this project is not assigned to anyone------modifier\n        // get all the bids for pt\n        Bid[] memory bidList = getAllBids(_partyAddress, _tenderId);\n        require(bidList.length > 0, \"No bids exists\");\n        // sort bids by price\n        for (uint i = 1; i < bidList.length; i++){\n            for (uint j = 0; j < i; j++){\n                if (bidList[i].quotedAmount < bidList[j].quotedAmount) {\n                    Bid memory tempBid = bidList[i];\n                    bidList[i] = bidList[j];\n                    bidList[j] = tempBid;\n                }\n            }\n        }\n        uint256 shortListedBidsCount = (bidList.length < 5) ? bidList.length : 5; \n        Bid[] memory shortListedBids = new Bid[](shortListedBidsCount);\n        for (uint i = 0; i < shortListedBidsCount; i++){\n            shortListedBids[i] = bidList[i];\n        }\n\n        return shortListedBids;\n        //returns a list of top 5 bidders and history of bidders\n\n        // - in case of a tie, the bidder with the largest \"trust\" is given the project. ( Trust in this context is measured in terms of the number of previous projects done and the token assets a party has.)\n        // update the status of each bid to APPROVED / REJECTED from PENDING.\n    }\n\n    function finaliseWinnerBid(address _partyAddress, uint256 _tenderId, uint256 _bidId) public isTenderOwner(_partyAddress, _tenderId){\n        uint256[] memory tenderBidIds = tenderRef.getBidIds(_tenderId);\n        for(uint256 i=0;i< tenderBidIds.length ;i++){\n            if(tenderBidIds[i] == _bidId)\n                updateBidStatus(_partyAddress, _tenderId, tenderBidIds[i], BidStatus.APPROVED);\n            else \n                updateBidStatus(_partyAddress, _tenderId, tenderBidIds[i], BidStatus.REJECTED);\n        }\n        tenderRef.updateTenderStatus(_tenderId, TenderStatus.ASSIGNED);\n    }\n    \n    // function filterBidsByQuotedAmount(Bid[] memory bidList) public returns(Bid[] memory) {\n\t// for (uint i = 1; i < bidList.length; i++) {\n\t// \tfor (uint j = 0; j < i; j++) {\n\t// \t\tif (bidList[i].quotedAmount < bidList[j].quotedAmount) {\n\t// \t\t\tBid memory tempBid = bidList[i];\n\t// \t\t\tbidList[i] = bidList[j];\n\t// \t\t\tbidList[j] = tempBid;\n\t// \t\t}\n\t// \t}\n\t// }\n\t// return bidList;\n    //  }\n\n}\n",
  "sourcePath": "C:\\dr yoon\\blockchain-based-contracting-system-master\\contracts\\BidContract.sol",
  "compiler": {
    "name": "solc",
    "version": "0.8.13+commit.abaa5c0e.Emscripten.clang"
  },
  "schemaVersion": "3.4.16",
  "updatedAt": "2024-05-05T22:47:29.461Z",
  "networkType": "ethereum",
  "devdoc": {
    "kind": "dev",
    "methods": {},
    "version": 1
  },
  "userdoc": {
    "kind": "user",
    "methods": {},
    "version": 1
  }
}