{
  "contractName": "MilestonesContract",
  "abi": [
    {
      "inputs": [
        {
          "internalType": "contract PartyContract",
          "name": "_partyRef",
          "type": "address"
        },
        {
          "internalType": "contract TenderContract",
          "name": "_tenderRef",
          "type": "address"
        },
        {
          "internalType": "contract BidContract",
          "name": "_bidRef",
          "type": "address"
        }
      ],
      "stateMutability": "nonpayable",
      "type": "constructor"
    },
    {
      "inputs": [],
      "name": "bidRef",
      "outputs": [
        {
          "internalType": "contract BidContract",
          "name": "",
          "type": "address"
        }
      ],
      "stateMutability": "view",
      "type": "function",
      "constant": true
    },
    {
      "inputs": [],
      "name": "partyRef",
      "outputs": [
        {
          "internalType": "contract PartyContract",
          "name": "",
          "type": "address"
        }
      ],
      "stateMutability": "view",
      "type": "function",
      "constant": true
    },
    {
      "inputs": [],
      "name": "tenderRef",
      "outputs": [
        {
          "internalType": "contract TenderContract",
          "name": "",
          "type": "address"
        }
      ],
      "stateMutability": "view",
      "type": "function",
      "constant": true
    },
    {
      "inputs": [
        {
          "internalType": "uint256[]",
          "name": "_milestoneTimePeriods",
          "type": "uint256[]"
        },
        {
          "internalType": "uint256",
          "name": "_bidId",
          "type": "uint256"
        },
        {
          "internalType": "uint256",
          "name": "_tenderId",
          "type": "uint256"
        }
      ],
      "name": "setMilestoneTimeline",
      "outputs": [],
      "stateMutability": "nonpayable",
      "type": "function"
    },
    {
      "inputs": [
        {
          "internalType": "uint256",
          "name": "_tenderId",
          "type": "uint256"
        },
        {
          "internalType": "uint256",
          "name": "_milestoneNumber",
          "type": "uint256"
        },
        {
          "internalType": "uint256",
          "name": "_days",
          "type": "uint256"
        }
      ],
      "name": "markMilestoneComplete",
      "outputs": [],
      "stateMutability": "nonpayable",
      "type": "function"
    },
    {
      "inputs": [
        {
          "internalType": "uint256",
          "name": "_tenderId",
          "type": "uint256"
        },
        {
          "internalType": "bool",
          "name": "approval",
          "type": "bool"
        }
      ],
      "name": "approveMilestoneCompletion",
      "outputs": [],
      "stateMutability": "nonpayable",
      "type": "function"
    },
    {
      "inputs": [
        {
          "internalType": "uint256",
          "name": "_tenderId",
          "type": "uint256"
        }
      ],
      "name": "projectCompleted",
      "outputs": [],
      "stateMutability": "nonpayable",
      "type": "function"
    },
    {
      "inputs": [
        {
          "internalType": "uint256",
          "name": "_tenderId",
          "type": "uint256"
        }
      ],
      "name": "projectHalt",
      "outputs": [],
      "stateMutability": "nonpayable",
      "type": "function"
    },
    {
      "inputs": [
        {
          "internalType": "uint256",
          "name": "_tenderId",
          "type": "uint256"
        },
        {
          "internalType": "uint256",
          "name": "_days",
          "type": "uint256"
        }
      ],
      "name": "addMilestone",
      "outputs": [],
      "stateMutability": "nonpayable",
      "type": "function"
    }
  ],
  "bytecode": "0x60806040523480156200001157600080fd5b50604051620017f9380380620017f9833981016040819052620000349162000090565b600080546001600160a01b039485166001600160a01b031991821617909155600180549385169382169390931790925560028054919093169116179055620000e4565b6001600160a01b03811681146200008d57600080fd5b50565b600080600060608486031215620000a657600080fd5b8351620000b38162000077565b6020850151909350620000c68162000077565b6040850151909250620000d98162000077565b809150509250925092565b61170580620000f46000396000f3fe608060405234801561001057600080fd5b50600436106100a35760003560e01c806374862d47116100765780638d4553991161005b5780638d455399146101385780638d5b86121461014b578063e21c42181461015e57600080fd5b806374862d47146100f657806375607db81461012557600080fd5b80633c2c02f3146100a85780634093c22b146100bd5780635601477b146100d05780636bf26ab1146100e3575b600080fd5b6100bb6100b63660046112a1565b610171565b005b6100bb6100cb366004611341565b610278565b6100bb6100de3660046113e7565b6105cd565b6100bb6100f1366004611409565b610787565b600254610109906001600160a01b031681565b6040516001600160a01b03909116815260200160405180910390f35b6100bb610133366004611409565b610b8b565b600054610109906001600160a01b031681565b600154610109906001600160a01b031681565b6100bb61016c366004611422565b610edc565b600154604051637e4d2d9760e01b8152600481018490526000916001600160a01b031690637e4d2d9790602401602060405180830381865afa1580156101bb573d6000803e3d6000fd5b505050506040513d601f19601f820116820180604052508101906101df919061146a565b90506001600160a01b03811633146102545760405162461bcd60e51b815260206004820152602d60248201527f596f75277265206e6f7420617574686f72697a656420746f20706572666f726d60448201526c103a3434b99030b1ba34b7b71760991b60648201526084015b60405180910390fd5b50600091825260036020526040909120600701805460ff1916911515919091179055565b600154604051637e4d2d9760e01b8152600481018390526000916001600160a01b031690637e4d2d9790602401602060405180830381865afa1580156102c2573d6000803e3d6000fd5b505050506040513d601f19601f820116820180604052508101906102e6919061146a565b60015460405163e2e5384d60e01b8152600481018590529192506000916001600160a01b039091169063e2e5384d90602401602060405180830381865afa158015610335573d6000803e3d6000fd5b505050506040513d601f19601f82011682018060405250810190610359919061148c565b90506001600160a01b03821633146103d95760405162461bcd60e51b815260206004820152602f60248201527f596f75277265206e6f7420617574686f72697a656420746f20706572666f726d60448201527f20746869732066756e6374696f6e2e0000000000000000000000000000000000606482015260840161024b565b60008381526003602052604080822060025491517f5fa38280000000000000000000000000000000000000000000000000000000008152600481018890529092916001600160a01b031690635fa3828090602401602060405180830381865afa15801561044a573d6000803e3d6000fd5b505050506040513d601f19601f8201168201806040525081019061046e919061146a565b875190915061048690600484019060208a0190611201565b50600182810180547fffffffffffffffffffffffff000000000000000000000000000000000000000090811633178255600280860180546001600160a01b0387811691851691909117825560038089018a81558c8a5560078a01805461ffff1916905560008d81526020839052604090208d8155965497870180548716988416989098179097559154928501805490941692169190911790915591549181019190915560048084018054859392610540929084019161124c565b5060058281018054610555928401919061124c565b506006828101805461056a928401919061124c565b5060078281018054918301805460ff938416151560ff1982168117835592546101009081900490941693919261ff00191661ffff1990911617908360028111156105b6576105b66114a5565b021790555060089182015491015550505050505050565b600154604051637e4d2d9760e01b8152600481018490526000916001600160a01b031690637e4d2d9790602401602060405180830381865afa158015610617573d6000803e3d6000fd5b505050506040513d601f19601f8201168201806040525081019061063b919061146a565b90506001600160a01b03811633146106ab5760405162461bcd60e51b815260206004820152602d60248201527f596f75277265206e6f7420617574686f726973656420746f20706572666f726d60448201526c103a3434b99030b1ba34b7b71760991b606482015260840161024b565b6000838152600360205260408120906007820154610100900460ff1660028111156106d8576106d86114a5565b1461074b5760405162461bcd60e51b815260206004820152602c60248201527f50726f6a656374206973206e6f74206163746976652c2063616e27742061646460448201527f206d696c6573746f6e65732e0000000000000000000000000000000000000000606482015260840161024b565b600481018054600181810183556000928352602083209091018590556003830180549192909161077c9084906114d1565b909155505050505050565b600154604051637e4d2d9760e01b8152600481018390526000916001600160a01b031690637e4d2d9790602401602060405180830381865afa1580156107d1573d6000803e3d6000fd5b505050506040513d601f19601f820116820180604052508101906107f5919061146a565b90506001600160a01b03811633146108655760405162461bcd60e51b815260206004820152602d60248201527f596f75277265206e6f7420617574686f72697a656420746f20706572666f726d60448201526c103a3434b99030b1ba34b7b71760991b606482015260840161024b565b60008281526003602052604090206007810180546002919061ff00191661010083021790555060008054604051635e09eea160e01b81526001600160a01b03858116600483015290911690635e09eea190602401602060405180830381865afa1580156108d6573d6000803e3d6000fd5b505050506040513d601f19601f820116820180604052508101906108fa919061148c565b60058301549091506000805b8281101561094d57846005018181548110610923576109236114e9565b90600052602060002001548261093991906114d1565b915080610945816114ff565b915050610906565b5060015460405163e2e5384d60e01b8152600481018890526000916001600160a01b03169063e2e5384d90602401602060405180830381865afa158015610998573d6000803e3d6000fd5b505050506040513d601f19601f820116820180604052508101906109bc919061148c565b90506109c8818361152e565b6109d29085611542565b600054604051631fdd88eb60e31b81526001600160a01b0389811660048301526024820184905292965091169063feec475890604401600060405180830381600087803b158015610a2257600080fd5b505af1158015610a36573d6000803e3d6000fd5b50506001546040517f471f40fb000000000000000000000000000000000000000000000000000000008152600481018b9052600093506001600160a01b03909116915063471f40fb90602401600060405180830381865afa158015610a9f573d6000803e3d6000fd5b505050506040513d6000823e601f3d908101601f19168201604052610ac79190810190611559565b90508051935060005b84811015610b805760005482516001600160a01b039091169063feec475890849084908110610b0157610b016114e9565b6020026020010151886040518363ffffffff1660e01b8152600401610b3b9291906001600160a01b03929092168252602082015260400190565b600060405180830381600087803b158015610b5557600080fd5b505af1158015610b69573d6000803e3d6000fd5b505050508080610b78906114ff565b915050610ad0565b505050505050505050565b600154604051637e4d2d9760e01b8152600481018390526000916001600160a01b031690637e4d2d9790602401602060405180830381865afa158015610bd5573d6000803e3d6000fd5b505050506040513d601f19601f82011682018060405250810190610bf9919061146a565b90506001600160a01b0381163314610c695760405162461bcd60e51b815260206004820152602d60248201527f596f75277265206e6f7420617574686f72697a656420746f20706572666f726d60448201526c103a3434b99030b1ba34b7b71760991b606482015260840161024b565b600082815260036020526040808220600154915163e2e5384d60e01b8152600481018690529092916001600160a01b03169063e2e5384d90602401602060405180830381865afa158015610cc1573d6000803e3d6000fd5b505050506040513d601f19601f82011682018060405250810190610ce5919061148c565b905080826008015414610d605760405162461bcd60e51b815260206004820152603560248201527f416374696f6e206e6f7420616c6c6f7765642120416c6c206d696c6573746f6e60448201527f657320617265206e6f7420636f6d706c657465642e0000000000000000000000606482015260840161024b565b60078201805461010061ff0019909116179055600080546002840154604051635e09eea160e01b81526001600160a01b039182166004820152911690635e09eea190602401602060405180830381865afa158015610dc2573d6000803e3d6000fd5b505050506040513d601f19601f82011682018060405250810190610de6919061148c565b9050806000805b84811015610e3457856006018181548110610e0a57610e0a6114e9565b906000526020600020015482610e2091906115f1565b915080610e2c816114ff565b915050610ded565b506000610e418583611649565b90506000610e4f82856115f1565b90506005811115610e635760059450610e67565b8094505b6000546002880154604051631fdd88eb60e31b81526001600160a01b0391821660048201526024810188905291169063feec475890604401600060405180830381600087803b158015610eb957600080fd5b505af1158015610ecd573d6000803e3d6000fd5b50505050505050505050505050565b600083815260036020526040902060028101546001600160a01b03163314610f5c5760405162461bcd60e51b815260206004820152602d60248201527f596f75277265206e6f7420617574686f72697a656420746f20706572666f726d60448201526c103a3434b99030b1ba34b7b71760991b606482015260840161024b565b60058101610f6b600185611542565b81548110610f7b57610f7b6114e9565b9060005260206000200154600014610fd55760405162461bcd60e51b815260206004820152601c60248201527f4d696c6573746f6e6520616c726561647920636f6d706c657465642e00000000604482015260640161024b565b600183101561107d5760058101610fed600285611542565b81548110610ffd57610ffd6114e9565b906000526020600020015460000361107d5760405162461bcd60e51b815260206004820152603b60248201527f416374696f6e206e6f7420616c6c6f7765642e50726576696f7573206d696c6560448201527f73746f6e6520697320796574206e6f7420636f6d706c657465642e0000000000606482015260840161024b565b60015460405163e2e5384d60e01b8152600481018690526001600160a01b039091169063e2e5384d90602401602060405180830381865afa1580156110c6573d6000803e3d6000fd5b505050506040513d601f19601f820116820180604052508101906110ea919061148c565b83106111385760405162461bcd60e51b815260206004820152601960248201527f4d696c6573746f6e6520646f65736e2774206578697374732e00000000000000604482015260640161024b565b600781015460ff1680156111fa576005820180546001818101835560009283526020832090910185905560048401906111719087611542565b81548110611181576111816114e9565b9060005260206000200154905080848261119b9190611677565b6111a59190611649565b600684016111b4600188611542565b815481106111c4576111c46114e9565b600091825260208220019190915560078401805460ff19169055600884018054600192906111f39084906114d1565b9091555050505b5050505050565b82805482825590600052602060002090810192821561123c579160200282015b8281111561123c578251825591602001919060010190611221565b5061124892915061128c565b5090565b82805482825590600052602060002090810192821561123c5760005260206000209182015b8281111561123c578254825591600101919060010190611271565b5b80821115611248576000815560010161128d565b600080604083850312156112b457600080fd5b82359150602083013580151581146112cb57600080fd5b809150509250929050565b634e487b7160e01b600052604160045260246000fd5b604051601f8201601f1916810167ffffffffffffffff81118282101715611315576113156112d6565b604052919050565b600067ffffffffffffffff821115611337576113376112d6565b5060051b60200190565b60008060006060848603121561135657600080fd5b833567ffffffffffffffff81111561136d57600080fd5b8401601f8101861361137e57600080fd5b8035602061139361138e8361131d565b6112ec565b82815260059290921b830181019181810190898411156113b257600080fd5b938201935b838510156113d0578435825293820193908201906113b7565b999188013598505060409096013595945050505050565b600080604083850312156113fa57600080fd5b50508035926020909101359150565b60006020828403121561141b57600080fd5b5035919050565b60008060006060848603121561143757600080fd5b505081359360208301359350604090920135919050565b80516001600160a01b038116811461146557600080fd5b919050565b60006020828403121561147c57600080fd5b6114858261144e565b9392505050565b60006020828403121561149e57600080fd5b5051919050565b634e487b7160e01b600052602160045260246000fd5b634e487b7160e01b600052601160045260246000fd5b600082198211156114e4576114e46114bb565b500190565b634e487b7160e01b600052603260045260246000fd5b600060018201611511576115116114bb565b5060010190565b634e487b7160e01b600052601260045260246000fd5b60008261153d5761153d611518565b500490565b600082821015611554576115546114bb565b500390565b6000602080838503121561156c57600080fd5b825167ffffffffffffffff81111561158357600080fd5b8301601f8101851361159457600080fd5b80516115a261138e8261131d565b81815260059190911b820183019083810190878311156115c157600080fd5b928401925b828410156115e6576115d78461144e565b825292840192908401906115c6565b979650505050505050565b6000808212827f7fffffffffffffffffffffffffffffffffffffffffffffffffffffffffffffff0384138115161561162b5761162b6114bb565b82600160ff1b038412811615611643576116436114bb565b50500190565b60008261165857611658611518565b600160ff1b821460001984141615611672576116726114bb565b500590565b600080831283600160ff1b01831281151615611695576116956114bb565b837f7fffffffffffffffffffffffffffffffffffffffffffffffffffffffffffffff0183138116156116c9576116c96114bb565b5050039056fea26469706673582212203a7a119b019f1cb7546b97842e84335817461c40ad532b0d4a73c3814987e0fe64736f6c634300080d0033",
  "immutableReferences": {},
  "source": "// SPDX-License-Identifier: GPL-3.0\npragma solidity >=0.7.0 <0.9.0;\n\nimport './PartyContract.sol';\nimport './BidContract.sol';\n\nenum ProjectStatus{ ONGOING, COMPLETED, HALTED } //bid selected - ONGOING, project completed - COMPLETED, project suspended - HALTED\n\ncontract MilestonesContract {\n    PartyContract public partyRef;\n    TenderContract public tenderRef;\n    BidContract public bidRef;\n\n    struct Projects {\n        uint256 tenderId;\n        address issuerAddress;\n        address bidderAddress;\n        uint256 totalMilestones;\n        uint[] milestoneTimePeriods;\n        uint[] completedMilestoneTimePeriods;\n        int[] workScore;\n        bool approvalFromIssuer;\n        ProjectStatus projectStatus;\n        uint256 completedMilestones;\n    }\n\n    constructor(PartyContract _partyRef, TenderContract _tenderRef, BidContract _bidRef){\n        partyRef = _partyRef;\n        tenderRef = _tenderRef;\n        bidRef = _bidRef;\n    }\n    mapping (uint256 => Projects) projects;\n    \n    //set the project attributes\n    function setMilestoneTimeline(uint[] memory _milestoneTimePeriods, uint256 _bidId, uint256 _tenderId) public {\n        address issuerAddress = tenderRef.getIssuerAddress(_tenderId);\n        uint256 _totalMilestones = tenderRef.getTotalMilestones(_tenderId);\n        require(issuerAddress == msg.sender, \"You're not authorized to perform this function.\");\n        Projects storage newProject = projects[_tenderId];\n        address _bidderAddress = bidRef.getBidderAddress(_bidId);\n        newProject.milestoneTimePeriods = _milestoneTimePeriods;\n        newProject.issuerAddress = msg.sender;\n        newProject.bidderAddress = _bidderAddress;\n        newProject.totalMilestones = _totalMilestones;\n        newProject.tenderId = _tenderId;\n        newProject.approvalFromIssuer = false;\n        newProject.projectStatus = ProjectStatus.ONGOING;\n        projects[_tenderId] = newProject;\n    }\n    \n    //mark milestone completed\n    function markMilestoneComplete(uint256 _tenderId, uint _milestoneNumber, uint _days) public {\n        Projects storage project = projects[_tenderId];\n        //Only bidder can mark milestone complete\n        require(project.bidderAddress == msg.sender, \"You're not authorized to perform this action.\");\n        //Completion can be marked only once\n        require(project.completedMilestoneTimePeriods[_milestoneNumber-1] == 0, \"Milestone already completed.\");\n        //All previous milestones should be completed\n        if(_milestoneNumber < 1) {\n            require(project.completedMilestoneTimePeriods[_milestoneNumber-2] != 0, \"Action not allowed.Previous milestone is yet not completed.\");\n        }\n        //Milestone number should be valid\n        require(_milestoneNumber < tenderRef.getTotalMilestones(_tenderId), \"Milestone doesn't exists.\");\n        \n        //modify workScore and save completion days in milestoneCompletion[milestoneNumber-1] after getting approval from issuer\n        bool approval = project.approvalFromIssuer;\n        \n        if(approval) {\n            project.completedMilestoneTimePeriods.push(_days);\n            int decidedDays = int(project.milestoneTimePeriods[_milestoneNumber-1]);\n            project.workScore[_milestoneNumber-1] = int((decidedDays - int(_days)) / decidedDays);\n            project.approvalFromIssuer = false;\n            project.completedMilestones += 1;\n        }\n    }\n\n    function approveMilestoneCompletion(uint256 _tenderId, bool approval) public {\n        address issuerAddress = tenderRef.getIssuerAddress(_tenderId);\n        require(issuerAddress == msg.sender, \"You're not authorized to perform this action.\");\n        Projects storage project = projects[_tenderId];\n        project.approvalFromIssuer = approval;\n    }\n\n    function projectCompleted(uint256 _tenderId) public {\n        address issuerAddress = tenderRef.getIssuerAddress(_tenderId);\n        require(issuerAddress == msg.sender, \"You're not authorized to perform this action.\");\n        Projects storage project = projects[_tenderId];\n        uint len = tenderRef.getTotalMilestones(_tenderId);\n        require(project.completedMilestones == len, \"Action not allowed! All milestones are not completed.\");\n        project.projectStatus = ProjectStatus.COMPLETED;\n        //Get current trust score of the bidder\n        uint256 trustScore = partyRef.getTrustScore(project.bidderAddress);\n        int oldTrustScore = int(trustScore);\n        int sum = 0;\n        for(uint i=0; i < len; i++) {\n            sum = sum + project.workScore[i];\n        }\n        //Average of the workScore of all milestones\n        int avgWorkScore = sum/int(len);\n        //New trustScore = old trustScore + avg(workScore)\n        uint256 newTrustScore = uint(oldTrustScore + avgWorkScore);\n        \n        //Maintaining trustScore value between 0 to 5\n        if(newTrustScore > 5) {\n            trustScore = 5;\n        }\n        else if(newTrustScore < 0) {\n            trustScore = 0;\n        }\n        else {\n            trustScore = newTrustScore;\n        }\n        partyRef.setTrustScore(project.bidderAddress, trustScore);\n    }\n\n    function projectHalt(uint256 _tenderId) public {\n        address issuerAddress = tenderRef.getIssuerAddress(_tenderId);\n        require(issuerAddress == msg.sender, \"You're not authorized to perform this action.\");\n        Projects storage project = projects[_tenderId];\n        project.projectStatus = ProjectStatus.HALTED;\n        //Negative impact on issuer's trust score\n        uint256 trustScore = partyRef.getTrustScore(issuerAddress);\n        uint256 len = project.completedMilestoneTimePeriods.length;\n        uint256 workDays = 0;\n        for(uint256 i=0; i<len; i++) {\n            workDays += project.completedMilestoneTimePeriods[i];\n        }\n        uint256 totalDays = tenderRef.getTotalMilestones(_tenderId);\n        trustScore = trustScore - (workDays/totalDays);\n        partyRef.setTrustScore(issuerAddress, trustScore);\n        \n        //Negative impact on validators' trust score\n        address[] memory validators = tenderRef.getValidators(_tenderId);\n        len = validators.length;\n        for(uint256 i=0; i < len; i++) {\n            partyRef.setTrustScore(validators[i], trustScore);\n        }\n    }\n\n    function addMilestone(uint256 _tenderId, uint256 _days) public {\n        address issuerAddress = tenderRef.getIssuerAddress(_tenderId);\n        require(issuerAddress == msg.sender, \"You're not authorised to perform this action.\");\n        Projects storage project = projects[_tenderId];\n        require(project.projectStatus == ProjectStatus.ONGOING, \"Project is not active, can't add milestones.\");\n\n        project.milestoneTimePeriods.push(_days);\n        project.totalMilestones += 1;\n    }\n    \n    //Filter Projects by the number of milestones completed\n//     function filterProjectsByMilestones(Project[] memory projectList) public view returns(Project[] memory) {\n// \tfor (uint i = 1; i < projectList.length; i++){\n// \t\tfor (uint j = 0; j < i; j++){\n// \t\t\tif (projectList[i].completedMilestones < projectList[j].completedMilestones) {\n// \t\t\t\tProject memory tempProject = projectList[i];\n// \t\t\t\tprojectList[i] = projectList[j];\n// \t\t\t\tprojectList[j] = tempProject;\n// \t\t\t}\n// \t\t}\n// \t}\n// }\n}\n",
  "sourcePath": "C:\\dr yoon\\blockchain-based-contracting-system-master\\contracts\\MilestonesContract.sol",
  "compiler": {
    "name": "solc",
    "version": "0.8.13+commit.abaa5c0e.Emscripten.clang"
  },
  "schemaVersion": "3.4.16",
  "updatedAt": "2024-05-05T22:47:29.474Z",
  "networkType": "ethereum",
  "devdoc": {
    "kind": "dev",
    "methods": {},
    "version": 1
  },
  "userdoc": {
    "kind": "user",
    "methods": {},
    "version": 1
  }
}