{
  "contractName": "PartyContract",
  "abi": [
    {
      "inputs": [],
      "stateMutability": "nonpayable",
      "type": "constructor"
    },
    {
      "inputs": [],
      "name": "admin",
      "outputs": [
        {
          "internalType": "address",
          "name": "",
          "type": "address"
        }
      ],
      "stateMutability": "view",
      "type": "function",
      "constant": true
    },
    {
      "inputs": [
        {
          "internalType": "address",
          "name": "",
          "type": "address"
        }
      ],
      "name": "parties",
      "outputs": [
        {
          "internalType": "string",
          "name": "name",
          "type": "string"
        },
        {
          "internalType": "string",
          "name": "contactNumber",
          "type": "string"
        },
        {
          "internalType": "string",
          "name": "email",
          "type": "string"
        },
        {
          "internalType": "string",
          "name": "password",
          "type": "string"
        },
        {
          "internalType": "uint256",
          "name": "trustScore",
          "type": "uint256"
        },
        {
          "internalType": "uint256",
          "name": "createdAt",
          "type": "uint256"
        },
        {
          "internalType": "address",
          "name": "partyAddress",
          "type": "address"
        },
        {
          "internalType": "uint256",
          "name": "freezedBalance",
          "type": "uint256"
        }
      ],
      "stateMutability": "view",
      "type": "function",
      "constant": true
    },
    {
      "inputs": [
        {
          "internalType": "uint256",
          "name": "",
          "type": "uint256"
        }
      ],
      "name": "partyAddresses",
      "outputs": [
        {
          "internalType": "address",
          "name": "",
          "type": "address"
        }
      ],
      "stateMutability": "view",
      "type": "function",
      "constant": true
    },
    {
      "inputs": [],
      "name": "tokenRef",
      "outputs": [
        {
          "internalType": "contract Token",
          "name": "",
          "type": "address"
        }
      ],
      "stateMutability": "view",
      "type": "function",
      "constant": true
    },
    {
      "inputs": [
        {
          "internalType": "address",
          "name": "_partyAddress",
          "type": "address"
        }
      ],
      "name": "getTrustScore",
      "outputs": [
        {
          "internalType": "uint256",
          "name": "",
          "type": "uint256"
        }
      ],
      "stateMutability": "view",
      "type": "function",
      "constant": true
    },
    {
      "inputs": [
        {
          "internalType": "address",
          "name": "_partyAddress",
          "type": "address"
        },
        {
          "internalType": "uint256",
          "name": "_trustScore",
          "type": "uint256"
        }
      ],
      "name": "setTrustScore",
      "outputs": [],
      "stateMutability": "nonpayable",
      "type": "function"
    },
    {
      "inputs": [
        {
          "internalType": "string",
          "name": "_name",
          "type": "string"
        },
        {
          "internalType": "string",
          "name": "_contactNumber",
          "type": "string"
        },
        {
          "internalType": "string",
          "name": "_email",
          "type": "string"
        },
        {
          "internalType": "string",
          "name": "_password",
          "type": "string"
        },
        {
          "internalType": "address",
          "name": "_partyAddress",
          "type": "address"
        }
      ],
      "name": "createParty",
      "outputs": [],
      "stateMutability": "nonpayable",
      "type": "function"
    },
    {
      "inputs": [
        {
          "internalType": "string",
          "name": "_name",
          "type": "string"
        },
        {
          "internalType": "string",
          "name": "_password",
          "type": "string"
        },
        {
          "internalType": "address",
          "name": "_partyAddress",
          "type": "address"
        }
      ],
      "name": "updateParty",
      "outputs": [],
      "stateMutability": "nonpayable",
      "type": "function"
    },
    {
      "inputs": [
        {
          "internalType": "address",
          "name": "_partyAddress",
          "type": "address"
        }
      ],
      "name": "deleteParty",
      "outputs": [],
      "stateMutability": "nonpayable",
      "type": "function"
    },
    {
      "inputs": [
        {
          "internalType": "address",
          "name": "_partyAddress",
          "type": "address"
        }
      ],
      "name": "getPartyDetails",
      "outputs": [
        {
          "internalType": "string",
          "name": "",
          "type": "string"
        },
        {
          "internalType": "string",
          "name": "",
          "type": "string"
        },
        {
          "internalType": "string",
          "name": "",
          "type": "string"
        },
        {
          "internalType": "address",
          "name": "",
          "type": "address"
        },
        {
          "internalType": "uint256",
          "name": "",
          "type": "uint256"
        },
        {
          "internalType": "string",
          "name": "",
          "type": "string"
        }
      ],
      "stateMutability": "view",
      "type": "function",
      "constant": true
    }
  ],
  "bytecode": "0x6080604052603260045534801561001557600080fd5b506112ed806100256000396000f3fe608060405234801561001057600080fd5b50600436106100bd5760003560e01c80637a0c7d3911610076578063ef8c03911161005b578063ef8c0391146101b7578063f851a440146101ca578063feec4758146101dd57600080fd5b80637a0c7d3914610191578063c792d8fd146101a457600080fd5b806333bec837116100a757806333bec837146101055780634f235207146101305780635e09eea11461015757600080fd5b8062da7228146100c2578063171fd848146100f0575b600080fd5b6100d56100d0366004610e94565b61020a565b6040516100e796959493929190610f03565b60405180910390f35b6101036100fe366004611015565b610553565b005b600354610118906001600160a01b031681565b6040516001600160a01b0390911681526020016100e7565b61014361013e366004610e94565b610739565b6040516100e79897969594939291906110d3565b610183610165366004610e94565b6001600160a01b031660009081526020819052604090206004015490565b6040519081526020016100e7565b61010361019f366004611154565b6109a6565b6101186101b23660046111c8565b610aab565b6101036101c5366004610e94565b610ad5565b600254610118906001600160a01b031681565b6101036101eb3660046111e1565b6001600160a01b03909116600090815260208190526040902060040155565b606080806000808286336001600160a01b038216146102665760405162461bcd60e51b815260206004820152601360248201527221b0b63632b91034b9903737ba1037bbb732b960691b60448201526064015b60405180910390fd5b6001600160a01b038089166000908152602081905260409020600601548991166102d25760405162461bcd60e51b815260206004820152601460248201527f506172747920646f6573206e6f74206578697374000000000000000000000000604482015260640161025d565b6001600160a01b03808a1660009081526020819052604090206006810154600482015482549293600185019360028601939091169190600386019086906103189061120b565b80601f01602080910402602001604051908101604052809291908181526020018280546103449061120b565b80156103915780601f1061036657610100808354040283529160200191610391565b820191906000526020600020905b81548152906001019060200180831161037457829003601f168201915b505050505095508480546103a49061120b565b80601f01602080910402602001604051908101604052809291908181526020018280546103d09061120b565b801561041d5780601f106103f25761010080835404028352916020019161041d565b820191906000526020600020905b81548152906001019060200180831161040057829003601f168201915b505050505094508380546104309061120b565b80601f016020809104026020016040519081016040528092919081815260200182805461045c9061120b565b80156104a95780601f1061047e576101008083540402835291602001916104a9565b820191906000526020600020905b81548152906001019060200180831161048c57829003601f168201915b505050505093508080546104bc9061120b565b80601f01602080910402602001604051908101604052809291908181526020018280546104e89061120b565b80156105355780601f1061050a57610100808354040283529160200191610535565b820191906000526020600020905b81548152906001019060200180831161051857829003601f168201915b50505050509050975097509750975097509750505091939550919395565b80336001600160a01b038216146105a25760405162461bcd60e51b815260206004820152601360248201527221b0b63632b91034b9903737ba1037bbb732b960691b604482015260640161025d565b6001600160a01b03828116600090815260208190526040902060060154161561060d5760405162461bcd60e51b815260206004820152601460248201527f506172747920616c726561647920657869737473000000000000000000000000604482015260640161025d565b6001600160a01b038216600090815260208181526040909120875190916106389183918a0190610d4e565b50855161064e9060018301906020890190610d4e565b5084516106649060028301906020880190610d4e565b50835161067a9060038301906020870190610d4e565b5060006004820181905542600583015560068201805473ffffffffffffffffffffffffffffffffffffffff19166001600160a01b03861617905560408051918252602082019081905290516106d3916007840191610dd2565b50506001805480820182556000919091527fb10e2d527612073b26eecdfd717e6a320cf44b4afac2b0732d9fcbe2b7fa0cf601805473ffffffffffffffffffffffffffffffffffffffff19166001600160a01b0393909316929092179091555050505050565b6000602081905290815260409020805481906107549061120b565b80601f01602080910402602001604051908101604052809291908181526020018280546107809061120b565b80156107cd5780601f106107a2576101008083540402835291602001916107cd565b820191906000526020600020905b8154815290600101906020018083116107b057829003601f168201915b5050505050908060010180546107e29061120b565b80601f016020809104026020016040519081016040528092919081815260200182805461080e9061120b565b801561085b5780601f106108305761010080835404028352916020019161085b565b820191906000526020600020905b81548152906001019060200180831161083e57829003601f168201915b5050505050908060020180546108709061120b565b80601f016020809104026020016040519081016040528092919081815260200182805461089c9061120b565b80156108e95780601f106108be576101008083540402835291602001916108e9565b820191906000526020600020905b8154815290600101906020018083116108cc57829003601f168201915b5050505050908060030180546108fe9061120b565b80601f016020809104026020016040519081016040528092919081815260200182805461092a9061120b565b80156109775780601f1061094c57610100808354040283529160200191610977565b820191906000526020600020905b81548152906001019060200180831161095a57829003601f168201915b505050600484015460058501546006860154600890960154949591949093506001600160a01b03909116915088565b80336001600160a01b038216146109f55760405162461bcd60e51b815260206004820152601360248201527221b0b63632b91034b9903737ba1037bbb732b960691b604482015260640161025d565b6001600160a01b03808316600090815260208190526040902060060154839116610a615760405162461bcd60e51b815260206004820152601460248201527f506172747920646f6573206e6f74206578697374000000000000000000000000604482015260640161025d565b6001600160a01b03831660009081526020818152604090912086519091610a8c918391890190610d4e565b508451610aa29060038301906020880190610d4e565b50505050505050565b60018181548110610abb57600080fd5b6000918252602090912001546001600160a01b0316905081565b80336001600160a01b03821614610b245760405162461bcd60e51b815260206004820152601360248201527221b0b63632b91034b9903737ba1037bbb732b960691b604482015260640161025d565b6001600160a01b03808316600090815260208190526040902060060154839116610b905760405162461bcd60e51b815260206004820152601460248201527f506172747920646f6573206e6f74206578697374000000000000000000000000604482015260640161025d565b6001600160a01b038316600090815260208190526040812090610bb38282610e0c565b610bc1600183016000610e0c565b610bcf600283016000610e0c565b610bdd600383016000610e0c565b6000600483018190556005830181905560068301805473ffffffffffffffffffffffffffffffffffffffff19169055610c1a906007840190610e49565b6008820160009055600982016000610c329190610e49565b505060005b600154811015610d4857336001600160a01b031660018281548110610c5e57610c5e611245565b6000918252602090912001546001600160a01b031603610d365760018054610c87908290611271565b81548110610c9757610c97611245565b600091825260209091200154600180546001600160a01b039092169183908110610cc357610cc3611245565b9060005260206000200160006101000a8154816001600160a01b0302191690836001600160a01b031602179055506001805480610d0257610d02611288565b6000828152602090208101600019908101805473ffffffffffffffffffffffffffffffffffffffff19169055019055610d48565b80610d408161129e565b915050610c37565b50505050565b828054610d5a9061120b565b90600052602060002090601f016020900481019282610d7c5760008555610dc2565b82601f10610d9557805160ff1916838001178555610dc2565b82800160010185558215610dc2579182015b82811115610dc2578251825591602001919060010190610da7565b50610dce929150610e63565b5090565b828054828255906000526020600020908101928215610dc25791602002820182811115610dc2578251825591602001919060010190610da7565b508054610e189061120b565b6000825580601f10610e28575050565b601f016020900490600052602060002090810190610e469190610e63565b50565b5080546000825590600052602060002090810190610e4691905b5b80821115610dce5760008155600101610e64565b80356001600160a01b0381168114610e8f57600080fd5b919050565b600060208284031215610ea657600080fd5b610eaf82610e78565b9392505050565b6000815180845260005b81811015610edc57602081850181015186830182015201610ec0565b81811115610eee576000602083870101525b50601f01601f19169290920160200192915050565b60c081526000610f1660c0830189610eb6565b8281036020840152610f288189610eb6565b90508281036040840152610f3c8188610eb6565b90506001600160a01b038616606084015284608084015282810360a0840152610f658185610eb6565b9998505050505050505050565b634e487b7160e01b600052604160045260246000fd5b600082601f830112610f9957600080fd5b813567ffffffffffffffff80821115610fb457610fb4610f72565b604051601f8301601f19908116603f01168101908282118183101715610fdc57610fdc610f72565b81604052838152866020858801011115610ff557600080fd5b836020870160208301376000602085830101528094505050505092915050565b600080600080600060a0868803121561102d57600080fd5b853567ffffffffffffffff8082111561104557600080fd5b61105189838a01610f88565b9650602088013591508082111561106757600080fd5b61107389838a01610f88565b9550604088013591508082111561108957600080fd5b61109589838a01610f88565b945060608801359150808211156110ab57600080fd5b506110b888828901610f88565b9250506110c760808701610e78565b90509295509295909350565b60006101008083526110e78184018c610eb6565b905082810360208401526110fb818b610eb6565b9050828103604084015261110f818a610eb6565b905082810360608401526111238189610eb6565b9150508560808301528460a08301526001600160a01b03841660c08301528260e08301529998505050505050505050565b60008060006060848603121561116957600080fd5b833567ffffffffffffffff8082111561118157600080fd5b61118d87838801610f88565b945060208601359150808211156111a357600080fd5b506111b086828701610f88565b9250506111bf60408501610e78565b90509250925092565b6000602082840312156111da57600080fd5b5035919050565b600080604083850312156111f457600080fd5b6111fd83610e78565b946020939093013593505050565b600181811c9082168061121f57607f821691505b60208210810361123f57634e487b7160e01b600052602260045260246000fd5b50919050565b634e487b7160e01b600052603260045260246000fd5b634e487b7160e01b600052601160045260246000fd5b6000828210156112835761128361125b565b500390565b634e487b7160e01b600052603160045260246000fd5b6000600182016112b0576112b061125b565b506001019056fea2646970667358221220bf54664404099796875e17dbadc0e40b03c644fbccedda74778f35e16a89181064736f6c634300080d0033",
  "immutableReferences": {},
  "source": "// SPDX-License-Identifier: UNLICENSED\n\npragma solidity >=0.7.0 <0.9.0;\n\n// import \"https://github.com/OpenZeppelin/openzeppelin-contracts/blob/master/contracts/token/ERC20/ERC20.sol\"; // Use this while running it in remix\n\nimport \"./Token.sol\";\n\ncontract PartyContract {\n\n    struct Party {\n        string name;\n        string contactNumber;\n        string email;\n        string password;\n        uint256 trustScore;\n        uint256 createdAt;\n        address partyAddress;\n        uint256[] tenderIds;\n        uint256 freezedBalance;\n        uint256[] tenderIdsToValidate;\n    }\n    \n    mapping (address => Party) public parties;\n    address[] public partyAddresses;\n    address public admin;\n    Token public tokenRef;\n    uint256 tokenAmount = 50; // Giving 50 token to created party ,Fixed amount of tokens to credit\n       \n    constructor() {\n        // tokenRef = _tokenRef;  \n        // admin = msg.sender;\n    }\n\n    //setters and getters\n    function getTrustScore(address _partyAddress) public view returns(uint256) {\n        return parties[_partyAddress].trustScore;\n    }\n\n    function setTrustScore(address _partyAddress, uint256 _trustScore) public {\n        parties[_partyAddress].trustScore = _trustScore;\n    }\n\n    modifier isOwner(address owner) {\n        require(msg.sender == owner, \"Caller is not owner\");\n        _;\n    }\n\n    modifier isPartyExists(address _partyAddress) {\n        require(parties[_partyAddress].partyAddress != address(0), \"Party does not exist\");\n        _;\n    }\n\n    // Function for creating party\n    function createParty(string memory _name, string memory _contactNumber, string memory _email, string memory _password, address _partyAddress) public isOwner(_partyAddress){\n        require(parties[_partyAddress].partyAddress == address(0), \"Party already exists\"); //\n\n        Party storage newParty = parties[_partyAddress];\n        newParty.name = _name;\n        newParty.contactNumber = _contactNumber;\n        newParty.email = _email;\n        newParty.password = _password;\n        newParty.trustScore = 0;\n        newParty.createdAt = block.timestamp;\n        newParty.partyAddress = _partyAddress;\n        newParty.tenderIds = new uint256[](0); \n        // Giving 50 token to created party\n        // uint256 tokenAmount = 50; // Fixed amount of tokens to credit\n        // tokenRef.transfer(payable(_partyAddress), tokenAmount * (10 ** 18));\n        \n        partyAddresses.push(_partyAddress);\n    }\n\n    //Function for updating party\n    function updateParty(string memory _name, string memory _password, address _partyAddress) public isOwner(_partyAddress) isPartyExists(_partyAddress) {\n        // require(msg.sender == parties[_partyAddress].partyAddress, \"Only party owner can update/delete party details.\");\n        Party storage updatedParty = parties[_partyAddress];\n        updatedParty.name  = _name;\n        updatedParty.password = _password;\n    }\n    \n    //Function for deleting a party on platform\n    function deleteParty(address _partyAddress) public isOwner(_partyAddress) isPartyExists(_partyAddress) {\n        // require(msg.sender == parties[_partyAddress].partyAddress, \"Only party owner can update/delete party details.\");\n        delete parties[_partyAddress];\n        for (uint256 i = 0; i < partyAddresses.length; i++) {\n            if (partyAddresses[i] == msg.sender) {\n                partyAddresses[i] = partyAddresses[partyAddresses.length - 1];\n                partyAddresses.pop();\n                break;\n            }\n        }\n    }\n \n    // Function for getting details of a particular party\n    function getPartyDetails(address _partyAddress) public isOwner(_partyAddress) isPartyExists(_partyAddress) view returns (string memory, string memory, string memory, address, uint256, string memory) {\n        return (parties[_partyAddress].name, parties[_partyAddress].contactNumber, parties[_partyAddress].email, parties[_partyAddress].partyAddress, parties[_partyAddress].trustScore, parties[_partyAddress].password);\n    }\n}\n",
  "sourcePath": "C:\\dr yoon\\blockchain-based-contracting-system-master\\contracts\\PartyContract.sol",
  "compiler": {
    "name": "solc",
    "version": "0.8.13+commit.abaa5c0e.Emscripten.clang"
  },
  "schemaVersion": "3.4.16",
  "updatedAt": "2024-05-05T22:47:29.428Z",
  "networkType": "ethereum",
  "devdoc": {
    "kind": "dev",
    "methods": {},
    "version": 1
  },
  "userdoc": {
    "kind": "user",
    "methods": {},
    "version": 1
  }
}