{
  "contractName": "TenderContract",
  "abi": [
    {
      "inputs": [],
      "stateMutability": "nonpayable",
      "type": "constructor"
    },
    {
      "inputs": [],
      "name": "admin",
      "outputs": [
        {
          "internalType": "address",
          "name": "",
          "type": "address"
        }
      ],
      "stateMutability": "view",
      "type": "function",
      "constant": true
    },
    {
      "inputs": [
        {
          "internalType": "string",
          "name": "_name",
          "type": "string"
        },
        {
          "internalType": "string",
          "name": "_contactNumber",
          "type": "string"
        },
        {
          "internalType": "string",
          "name": "_email",
          "type": "string"
        },
        {
          "internalType": "string",
          "name": "_password",
          "type": "string"
        },
        {
          "internalType": "address",
          "name": "_partyAddress",
          "type": "address"
        }
      ],
      "name": "createParty",
      "outputs": [],
      "stateMutability": "nonpayable",
      "type": "function"
    },
    {
      "inputs": [
        {
          "internalType": "address",
          "name": "_partyAddress",
          "type": "address"
        }
      ],
      "name": "deleteParty",
      "outputs": [],
      "stateMutability": "nonpayable",
      "type": "function"
    },
    {
      "inputs": [
        {
          "internalType": "address",
          "name": "_partyAddress",
          "type": "address"
        }
      ],
      "name": "getPartyDetails",
      "outputs": [
        {
          "internalType": "string",
          "name": "",
          "type": "string"
        },
        {
          "internalType": "string",
          "name": "",
          "type": "string"
        },
        {
          "internalType": "string",
          "name": "",
          "type": "string"
        },
        {
          "internalType": "address",
          "name": "",
          "type": "address"
        },
        {
          "internalType": "uint256",
          "name": "",
          "type": "uint256"
        },
        {
          "internalType": "string",
          "name": "",
          "type": "string"
        }
      ],
      "stateMutability": "view",
      "type": "function",
      "constant": true
    },
    {
      "inputs": [
        {
          "internalType": "address",
          "name": "_partyAddress",
          "type": "address"
        }
      ],
      "name": "getTrustScore",
      "outputs": [
        {
          "internalType": "uint256",
          "name": "",
          "type": "uint256"
        }
      ],
      "stateMutability": "view",
      "type": "function",
      "constant": true
    },
    {
      "inputs": [
        {
          "internalType": "address",
          "name": "",
          "type": "address"
        }
      ],
      "name": "parties",
      "outputs": [
        {
          "internalType": "string",
          "name": "name",
          "type": "string"
        },
        {
          "internalType": "string",
          "name": "contactNumber",
          "type": "string"
        },
        {
          "internalType": "string",
          "name": "email",
          "type": "string"
        },
        {
          "internalType": "string",
          "name": "password",
          "type": "string"
        },
        {
          "internalType": "uint256",
          "name": "trustScore",
          "type": "uint256"
        },
        {
          "internalType": "uint256",
          "name": "createdAt",
          "type": "uint256"
        },
        {
          "internalType": "address",
          "name": "partyAddress",
          "type": "address"
        },
        {
          "internalType": "uint256",
          "name": "freezedBalance",
          "type": "uint256"
        }
      ],
      "stateMutability": "view",
      "type": "function",
      "constant": true
    },
    {
      "inputs": [
        {
          "internalType": "uint256",
          "name": "",
          "type": "uint256"
        }
      ],
      "name": "partyAddresses",
      "outputs": [
        {
          "internalType": "address",
          "name": "",
          "type": "address"
        }
      ],
      "stateMutability": "view",
      "type": "function",
      "constant": true
    },
    {
      "inputs": [
        {
          "internalType": "address",
          "name": "_partyAddress",
          "type": "address"
        },
        {
          "internalType": "uint256",
          "name": "_trustScore",
          "type": "uint256"
        }
      ],
      "name": "setTrustScore",
      "outputs": [],
      "stateMutability": "nonpayable",
      "type": "function"
    },
    {
      "inputs": [
        {
          "internalType": "uint256",
          "name": "",
          "type": "uint256"
        }
      ],
      "name": "tenders",
      "outputs": [
        {
          "internalType": "string",
          "name": "title",
          "type": "string"
        },
        {
          "internalType": "string",
          "name": "description",
          "type": "string"
        },
        {
          "internalType": "uint256",
          "name": "budget",
          "type": "uint256"
        },
        {
          "internalType": "address",
          "name": "issuerAddress",
          "type": "address"
        },
        {
          "internalType": "enum TenderStatus",
          "name": "tenderStatus",
          "type": "uint8"
        },
        {
          "internalType": "uint256",
          "name": "createdAt",
          "type": "uint256"
        },
        {
          "internalType": "uint256",
          "name": "deadline",
          "type": "uint256"
        },
        {
          "internalType": "uint256",
          "name": "totalMilestones",
          "type": "uint256"
        },
        {
          "internalType": "uint256",
          "name": "tenderId",
          "type": "uint256"
        },
        {
          "internalType": "uint256",
          "name": "balance",
          "type": "uint256"
        }
      ],
      "stateMutability": "view",
      "type": "function",
      "constant": true
    },
    {
      "inputs": [],
      "name": "tokenRef",
      "outputs": [
        {
          "internalType": "contract Token",
          "name": "",
          "type": "address"
        }
      ],
      "stateMutability": "view",
      "type": "function",
      "constant": true
    },
    {
      "inputs": [
        {
          "internalType": "string",
          "name": "_name",
          "type": "string"
        },
        {
          "internalType": "string",
          "name": "_password",
          "type": "string"
        },
        {
          "internalType": "address",
          "name": "_partyAddress",
          "type": "address"
        }
      ],
      "name": "updateParty",
      "outputs": [],
      "stateMutability": "nonpayable",
      "type": "function"
    },
    {
      "inputs": [],
      "name": "getTenderCount",
      "outputs": [
        {
          "internalType": "uint256",
          "name": "",
          "type": "uint256"
        }
      ],
      "stateMutability": "view",
      "type": "function",
      "constant": true
    },
    {
      "inputs": [
        {
          "internalType": "uint256",
          "name": "_tenderId",
          "type": "uint256"
        }
      ],
      "name": "getValidators",
      "outputs": [
        {
          "internalType": "address[]",
          "name": "",
          "type": "address[]"
        }
      ],
      "stateMutability": "view",
      "type": "function",
      "constant": true
    },
    {
      "inputs": [
        {
          "internalType": "uint256",
          "name": "_tenderId",
          "type": "uint256"
        }
      ],
      "name": "getTotalProjectDays",
      "outputs": [
        {
          "internalType": "uint256",
          "name": "",
          "type": "uint256"
        }
      ],
      "stateMutability": "view",
      "type": "function",
      "constant": true
    },
    {
      "inputs": [
        {
          "internalType": "uint256",
          "name": "_tenderId",
          "type": "uint256"
        }
      ],
      "name": "getBudget",
      "outputs": [
        {
          "internalType": "uint256",
          "name": "",
          "type": "uint256"
        }
      ],
      "stateMutability": "view",
      "type": "function",
      "constant": true
    },
    {
      "inputs": [
        {
          "internalType": "uint256",
          "name": "_tenderId",
          "type": "uint256"
        }
      ],
      "name": "getTenderStatus",
      "outputs": [
        {
          "internalType": "enum TenderStatus",
          "name": "",
          "type": "uint8"
        }
      ],
      "stateMutability": "view",
      "type": "function",
      "constant": true
    },
    {
      "inputs": [
        {
          "internalType": "uint256",
          "name": "_tenderId",
          "type": "uint256"
        }
      ],
      "name": "getDeadline",
      "outputs": [
        {
          "internalType": "uint256",
          "name": "",
          "type": "uint256"
        }
      ],
      "stateMutability": "view",
      "type": "function",
      "constant": true
    },
    {
      "inputs": [
        {
          "internalType": "uint256",
          "name": "_tenderId",
          "type": "uint256"
        }
      ],
      "name": "getBidIds",
      "outputs": [
        {
          "internalType": "uint256[]",
          "name": "",
          "type": "uint256[]"
        }
      ],
      "stateMutability": "view",
      "type": "function",
      "constant": true
    },
    {
      "inputs": [
        {
          "internalType": "uint256",
          "name": "_tenderId",
          "type": "uint256"
        }
      ],
      "name": "getIssuerAddress",
      "outputs": [
        {
          "internalType": "address",
          "name": "",
          "type": "address"
        }
      ],
      "stateMutability": "view",
      "type": "function",
      "constant": true
    },
    {
      "inputs": [
        {
          "internalType": "uint256",
          "name": "_tenderId",
          "type": "uint256"
        }
      ],
      "name": "getTotalMilestones",
      "outputs": [
        {
          "internalType": "uint256",
          "name": "",
          "type": "uint256"
        }
      ],
      "stateMutability": "view",
      "type": "function",
      "constant": true
    },
    {
      "inputs": [
        {
          "internalType": "uint256",
          "name": "_tenderId",
          "type": "uint256"
        }
      ],
      "name": "getBidsCount",
      "outputs": [
        {
          "internalType": "uint256",
          "name": "",
          "type": "uint256"
        }
      ],
      "stateMutability": "view",
      "type": "function",
      "constant": true
    },
    {
      "inputs": [
        {
          "internalType": "uint256",
          "name": "_tenderId",
          "type": "uint256"
        },
        {
          "internalType": "uint256",
          "name": "bidId",
          "type": "uint256"
        }
      ],
      "name": "addBidId",
      "outputs": [],
      "stateMutability": "nonpayable",
      "type": "function"
    },
    {
      "inputs": [
        {
          "internalType": "uint256[]",
          "name": "_tenderBidIds",
          "type": "uint256[]"
        },
        {
          "internalType": "uint256",
          "name": "_tenderId",
          "type": "uint256"
        }
      ],
      "name": "setBidIds",
      "outputs": [],
      "stateMutability": "nonpayable",
      "type": "function"
    },
    {
      "inputs": [
        {
          "internalType": "address",
          "name": "_partyAddress",
          "type": "address"
        },
        {
          "internalType": "uint256",
          "name": "_budget",
          "type": "uint256"
        },
        {
          "internalType": "string",
          "name": "_title",
          "type": "string"
        },
        {
          "internalType": "string",
          "name": "_description",
          "type": "string"
        },
        {
          "internalType": "uint256",
          "name": "_deadline",
          "type": "uint256"
        },
        {
          "internalType": "uint256",
          "name": "_totalMilestones",
          "type": "uint256"
        }
      ],
      "name": "createTender",
      "outputs": [],
      "stateMutability": "nonpayable",
      "type": "function"
    },
    {
      "inputs": [],
      "name": "sortByTrustScore",
      "outputs": [
        {
          "internalType": "address[]",
          "name": "",
          "type": "address[]"
        }
      ],
      "stateMutability": "view",
      "type": "function",
      "constant": true
    },
    {
      "inputs": [
        {
          "internalType": "uint256",
          "name": "_tenderId",
          "type": "uint256"
        },
        {
          "internalType": "bool",
          "name": "_vote",
          "type": "bool"
        }
      ],
      "name": "validate",
      "outputs": [],
      "stateMutability": "nonpayable",
      "type": "function"
    },
    {
      "inputs": [
        {
          "internalType": "uint256",
          "name": "_tenderId",
          "type": "uint256"
        }
      ],
      "name": "checkTenderValidation",
      "outputs": [],
      "stateMutability": "nonpayable",
      "type": "function"
    },
    {
      "inputs": [
        {
          "internalType": "bool[]",
          "name": "_validationVotes",
          "type": "bool[]"
        }
      ],
      "name": "isValid",
      "outputs": [
        {
          "internalType": "bool",
          "name": "",
          "type": "bool"
        }
      ],
      "stateMutability": "pure",
      "type": "function",
      "constant": true
    },
    {
      "inputs": [
        {
          "internalType": "address",
          "name": "_partyAddress",
          "type": "address"
        }
      ],
      "name": "getTendersToValidate",
      "outputs": [
        {
          "internalType": "uint256[]",
          "name": "",
          "type": "uint256[]"
        }
      ],
      "stateMutability": "view",
      "type": "function",
      "constant": true
    },
    {
      "inputs": [],
      "name": "getAllActiveTenders",
      "outputs": [
        {
          "components": [
            {
              "internalType": "string",
              "name": "title",
              "type": "string"
            },
            {
              "internalType": "string",
              "name": "description",
              "type": "string"
            },
            {
              "internalType": "uint256",
              "name": "budget",
              "type": "uint256"
            },
            {
              "internalType": "address",
              "name": "issuerAddress",
              "type": "address"
            },
            {
              "internalType": "enum TenderStatus",
              "name": "tenderStatus",
              "type": "uint8"
            },
            {
              "internalType": "uint256",
              "name": "createdAt",
              "type": "uint256"
            },
            {
              "internalType": "uint256",
              "name": "deadline",
              "type": "uint256"
            },
            {
              "internalType": "uint256",
              "name": "totalMilestones",
              "type": "uint256"
            },
            {
              "internalType": "uint256",
              "name": "tenderId",
              "type": "uint256"
            },
            {
              "internalType": "address[]",
              "name": "validatorsAddresses",
              "type": "address[]"
            },
            {
              "internalType": "bool[]",
              "name": "validationVotes",
              "type": "bool[]"
            },
            {
              "internalType": "uint256[]",
              "name": "milestoneTimePeriods",
              "type": "uint256[]"
            },
            {
              "internalType": "uint256[]",
              "name": "bidIds",
              "type": "uint256[]"
            },
            {
              "internalType": "uint256",
              "name": "balance",
              "type": "uint256"
            }
          ],
          "internalType": "struct TenderContract.Tender[]",
          "name": "",
          "type": "tuple[]"
        },
        {
          "internalType": "uint256",
          "name": "",
          "type": "uint256"
        }
      ],
      "stateMutability": "view",
      "type": "function",
      "constant": true
    },
    {
      "inputs": [
        {
          "internalType": "address",
          "name": "_partyAddress",
          "type": "address"
        }
      ],
      "name": "getMyTenders",
      "outputs": [
        {
          "components": [
            {
              "internalType": "string",
              "name": "title",
              "type": "string"
            },
            {
              "internalType": "string",
              "name": "description",
              "type": "string"
            },
            {
              "internalType": "uint256",
              "name": "budget",
              "type": "uint256"
            },
            {
              "internalType": "address",
              "name": "issuerAddress",
              "type": "address"
            },
            {
              "internalType": "enum TenderStatus",
              "name": "tenderStatus",
              "type": "uint8"
            },
            {
              "internalType": "uint256",
              "name": "createdAt",
              "type": "uint256"
            },
            {
              "internalType": "uint256",
              "name": "deadline",
              "type": "uint256"
            },
            {
              "internalType": "uint256",
              "name": "totalMilestones",
              "type": "uint256"
            },
            {
              "internalType": "uint256",
              "name": "tenderId",
              "type": "uint256"
            },
            {
              "internalType": "address[]",
              "name": "validatorsAddresses",
              "type": "address[]"
            },
            {
              "internalType": "bool[]",
              "name": "validationVotes",
              "type": "bool[]"
            },
            {
              "internalType": "uint256[]",
              "name": "milestoneTimePeriods",
              "type": "uint256[]"
            },
            {
              "internalType": "uint256[]",
              "name": "bidIds",
              "type": "uint256[]"
            },
            {
              "internalType": "uint256",
              "name": "balance",
              "type": "uint256"
            }
          ],
          "internalType": "struct TenderContract.Tender[]",
          "name": "",
          "type": "tuple[]"
        }
      ],
      "stateMutability": "view",
      "type": "function",
      "constant": true
    },
    {
      "inputs": [
        {
          "internalType": "uint256",
          "name": "_tenderId",
          "type": "uint256"
        }
      ],
      "name": "getTenderDetails",
      "outputs": [
        {
          "components": [
            {
              "internalType": "string",
              "name": "title",
              "type": "string"
            },
            {
              "internalType": "string",
              "name": "description",
              "type": "string"
            },
            {
              "internalType": "uint256",
              "name": "budget",
              "type": "uint256"
            },
            {
              "internalType": "address",
              "name": "issuerAddress",
              "type": "address"
            },
            {
              "internalType": "enum TenderStatus",
              "name": "tenderStatus",
              "type": "uint8"
            },
            {
              "internalType": "uint256",
              "name": "createdAt",
              "type": "uint256"
            },
            {
              "internalType": "uint256",
              "name": "deadline",
              "type": "uint256"
            },
            {
              "internalType": "uint256",
              "name": "totalMilestones",
              "type": "uint256"
            },
            {
              "internalType": "uint256",
              "name": "tenderId",
              "type": "uint256"
            },
            {
              "internalType": "address[]",
              "name": "validatorsAddresses",
              "type": "address[]"
            },
            {
              "internalType": "bool[]",
              "name": "validationVotes",
              "type": "bool[]"
            },
            {
              "internalType": "uint256[]",
              "name": "milestoneTimePeriods",
              "type": "uint256[]"
            },
            {
              "internalType": "uint256[]",
              "name": "bidIds",
              "type": "uint256[]"
            },
            {
              "internalType": "uint256",
              "name": "balance",
              "type": "uint256"
            }
          ],
          "internalType": "struct TenderContract.Tender",
          "name": "",
          "type": "tuple"
        }
      ],
      "stateMutability": "view",
      "type": "function",
      "constant": true
    },
    {
      "inputs": [
        {
          "internalType": "uint256",
          "name": "_tenderId",
          "type": "uint256"
        },
        {
          "internalType": "enum TenderStatus",
          "name": "_tenderStatus",
          "type": "uint8"
        }
      ],
      "name": "updateTenderStatus",
      "outputs": [],
      "stateMutability": "nonpayable",
      "type": "function"
    },
    {
      "inputs": [
        {
          "internalType": "address",
          "name": "_partyAddress",
          "type": "address"
        },
        {
          "internalType": "uint256",
          "name": "_tenderId",
          "type": "uint256"
        },
        {
          "internalType": "uint256",
          "name": "_budget",
          "type": "uint256"
        },
        {
          "internalType": "string",
          "name": "_title",
          "type": "string"
        },
        {
          "internalType": "string",
          "name": "_description",
          "type": "string"
        },
        {
          "internalType": "uint256",
          "name": "_deadline",
          "type": "uint256"
        },
        {
          "internalType": "uint256",
          "name": "_totalMilestones",
          "type": "uint256"
        }
      ],
      "name": "updateTender",
      "outputs": [],
      "stateMutability": "nonpayable",
      "type": "function"
    },
    {
      "inputs": [
        {
          "internalType": "address",
          "name": "_partyAddress",
          "type": "address"
        },
        {
          "internalType": "uint256",
          "name": "_tenderId",
          "type": "uint256"
        }
      ],
      "name": "deleteTender",
      "outputs": [],
      "stateMutability": "nonpayable",
      "type": "function"
    }
  ],
  "bytecode": "0x60806040526032600455600060065534801561001a57600080fd5b50613cd28061002a6000396000f3fe608060405234801561001057600080fd5b50600436106102405760003560e01c80635850b38311610145578063bac2e80d116100bd578063ef8c03911161008c578063f851a44011610071578063f851a440146105fe578063fd7b91b614610611578063feec47581461062457600080fd5b8063ef8c0391146105b7578063f1d8ef4d146105ca57600080fd5b8063bac2e80d1461054b578063c792d8fd1461055e578063ccfa858e14610571578063e2e5384d1461059457600080fd5b8063828622751161011457806397ef4e3e116100f957806397ef4e3e14610512578063aaaf418814610525578063b2a88f6f1461053857600080fd5b806382862275146104db578063897bb979146104ff57600080fd5b80635850b383146104685780635e09eea1146104705780637a0c7d391461049c5780637e4d2d97146104af57600080fd5b80633d818b31116101d8578063471f40fb116101a757806353ee895d1161018c57806353ee895d1461042d57806355e8dea21461044d578063564abc251461046057600080fd5b8063471f40fb146103e65780634f2352071461040657600080fd5b80633d818b31146103645780634008f9c01461037a57806342222a431461039d578063465e1def146103bd57600080fd5b806329c350f11161021457806329c350f1146102c95780632e4ea4c4146102dc57806333bec837146102ff578063354133f71461032a57600080fd5b8062da72281461024557806314ac201b14610273578063171fd84814610294578063228becb6146102a9575b600080fd5b61025861025336600461319c565b610651565b60405161026a9695949392919061320b565b60405180910390f35b61028661028136600461327a565b61099a565b60405190815260200161026a565b6102a76102a236600461334a565b610a4e565b005b6102bc6102b736600461319c565b610c1a565b60405161026a9190613651565b6102a76102d736600461327a565b6110e8565b6102866102ea36600461327a565b60009081526005602052604090206002015490565b600354610312906001600160a01b031681565b6040516001600160a01b03909116815260200161026a565b61035761033836600461327a565b600090815260056020526040902060030154600160a01b900460ff1690565b60405161026a9190613664565b61036c611185565b60405161026a929190613678565b61028661038836600461327a565b6000908152600560205260409020600b015490565b6103b06103ab36600461327a565b6115fc565b60405161026a919061369a565b6103d06103cb36600461327a565b611661565b60405161026a9a999897969594939291906136ad565b6103f96103f436600461327a565b6117d0565b60405161026a9190613728565b61041961041436600461319c565b61183e565b60405161026a989796959493929190613775565b61044061043b36600461327a565b611aab565b60405161026a91906137f6565b6102a761045b366004613809565b611e6f565b6103f96121bb565b600654610286565b61028661047e36600461319c565b6001600160a01b031660009081526020819052604090206004015490565b6102a76104aa366004613833565b612388565b6103126104bd36600461327a565b6000908152600560205260409020600301546001600160a01b031690565b6102866104e936600461327a565b6000908152600560208190526040909120015490565b6102a761050d3660046138cb565b61248d565b6102a7610520366004613977565b6124ed565b6102a76105333660046139a3565b612621565b6102a76105463660046139d7565b61267b565b6102a7610559366004613a67565b612997565b61031261056c36600461327a565b612beb565b61058461057f366004613b02565b612c15565b604051901515815260200161026a565b6102866105a236600461327a565b60009081526005602052604090206006015490565b6102a76105c536600461319c565b612c8c565b6102a76105d8366004613b9a565b60009182526005602090815260408320600b018054600181018255908452922090910155565b600254610312906001600160a01b031681565b6103b061061f36600461319c565b612eeb565b6102a7610632366004613809565b6001600160a01b03909116600090815260208190526040902060040155565b606080806000808286336001600160a01b038216146106ad5760405162461bcd60e51b815260206004820152601360248201527221b0b63632b91034b9903737ba1037bbb732b960691b60448201526064015b60405180910390fd5b6001600160a01b038089166000908152602081905260409020600601548991166107195760405162461bcd60e51b815260206004820152601460248201527f506172747920646f6573206e6f7420657869737400000000000000000000000060448201526064016106a4565b6001600160a01b03808a16600090815260208190526040902060068101546004820154825492936001850193600286019390911691906003860190869061075f90613bbc565b80601f016020809104026020016040519081016040528092919081815260200182805461078b90613bbc565b80156107d85780601f106107ad576101008083540402835291602001916107d8565b820191906000526020600020905b8154815290600101906020018083116107bb57829003601f168201915b505050505095508480546107eb90613bbc565b80601f016020809104026020016040519081016040528092919081815260200182805461081790613bbc565b80156108645780601f1061083957610100808354040283529160200191610864565b820191906000526020600020905b81548152906001019060200180831161084757829003601f168201915b5050505050945083805461087790613bbc565b80601f01602080910402602001604051908101604052809291908181526020018280546108a390613bbc565b80156108f05780601f106108c5576101008083540402835291602001916108f0565b820191906000526020600020905b8154815290600101906020018083116108d357829003601f168201915b5050505050935080805461090390613bbc565b80601f016020809104026020016040519081016040528092919081815260200182805461092f90613bbc565b801561097c5780601f106109515761010080835404028352916020019161097c565b820191906000526020600020905b81548152906001019060200180831161095f57829003601f168201915b50505050509050975097509750975097509750505091939550919395565b6000818152600560209081526040808320600a018054825181850281018501909352808352849384939291908301828280156109f557602002820191906000526020600020905b8154815260200190600101908083116109e1575b505083519394506000925050505b81811015610a4457828181518110610a1d57610a1d613bf0565b602002602001015184610a309190613c1c565b935080610a3c81613c34565b915050610a03565b5091949350505050565b80336001600160a01b03821614610a9d5760405162461bcd60e51b815260206004820152601360248201527221b0b63632b91034b9903737ba1037bbb732b960691b60448201526064016106a4565b6001600160a01b038281166000908152602081905260409020600601541615610b085760405162461bcd60e51b815260206004820152601460248201527f506172747920616c72656164792065786973747300000000000000000000000060448201526064016106a4565b6001600160a01b03821660009081526020818152604090912087519091610b339183918a0190612fa8565b508551610b499060018301906020890190612fa8565b508451610b5f9060028301906020880190612fa8565b508351610b759060038301906020870190612fa8565b506000600482018190554260058301556006820180546001600160a01b0319166001600160a01b0386161790556040805191825260208201908190529051610bc191600784019161302c565b50506001805480820182556000919091527fb10e2d527612073b26eecdfd717e6a320cf44b4afac2b0732d9fcbe2b7fa0cf60180546001600160a01b0319166001600160a01b0393909316929092179091555050505050565b6001600160a01b038116600090815260208190526040902060070154606090610c795760405162461bcd60e51b81526020600482015260116024820152704e6f2074656e646572732065786973747360781b60448201526064016106a4565b6001600160a01b03821660009081526020818152604080832060070180548251818502810185019093528083529192909190830182828015610cda57602002820191906000526020600020905b815481526020019060010190808311610cc6575b505050505090506000815167ffffffffffffffff811115610cfd57610cfd613293565b604051908082528060200260200182016040528015610d3657816020015b610d23613066565b815260200190600190039081610d1b5790505b50905060005b82518110156110e05760056000848381518110610d5b57610d5b613bf0565b60200260200101518152602001908152602001600020604051806101c0016040529081600082018054610d8d90613bbc565b80601f0160208091040260200160405190810160405280929190818152602001828054610db990613bbc565b8015610e065780601f10610ddb57610100808354040283529160200191610e06565b820191906000526020600020905b815481529060010190602001808311610de957829003601f168201915b50505050508152602001600182018054610e1f90613bbc565b80601f0160208091040260200160405190810160405280929190818152602001828054610e4b90613bbc565b8015610e985780601f10610e6d57610100808354040283529160200191610e98565b820191906000526020600020905b815481529060010190602001808311610e7b57829003601f168201915b50505091835250506002820154602082015260038201546001600160a01b0381166040830152606090910190600160a01b900460ff166004811115610edf57610edf613408565b6004811115610ef057610ef0613408565b81526020016004820154815260200160058201548152602001600682015481526020016007820154815260200160088201805480602002602001604051908101604052809291908181526020018280548015610f7557602002820191906000526020600020905b81546001600160a01b03168152600190910190602001808311610f57575b5050505050815260200160098201805480602002602001604051908101604052809291908181526020018280548015610fed57602002820191906000526020600020906000905b825461010083900a900460ff161515815260206001928301818104948501949093039092029101808411610fbc5790505b50505050508152602001600a820180548060200260200160405190810160405280929190818152602001828054801561104557602002820191906000526020600020905b815481526020019060010190808311611031575b50505050508152602001600b820180548060200260200160405190810160405280929190818152602001828054801561109d57602002820191906000526020600020905b815481526020019060010190808311611089575b50505050508152602001600c820154815250508282815181106110c2576110c2613bf0565b602002602001018190525080806110d890613c34565b915050610d3c565b509392505050565b60008181526005602090815260409182902060098101805484518185028101850190955280855291936111719390929083018282801561116757602002820191906000526020600020906000905b825461010083900a900460ff1615158152602060019283018181049485019490930390920291018084116111365790505b5050505050612c15565b1561118157611181826001612621565b5050565b6060600080600654116111ce5760405162461bcd60e51b81526020600482015260116024820152704e6f2074656e646572732065786973747360781b60448201526064016106a4565b60008060065467ffffffffffffffff8111156111ec576111ec613293565b60405190808252806020026020018201604052801561122557816020015b611212613066565b81526020019060019003908161120a5790505b50905060005b6006548110156115f3576001600082815260056020526040902060030154600160a01b900460ff16600481111561126457611264613408565b036115e1576000818152600560205260409081902081516101c0810190925280548290829061129290613bbc565b80601f01602080910402602001604051908101604052809291908181526020018280546112be90613bbc565b801561130b5780601f106112e05761010080835404028352916020019161130b565b820191906000526020600020905b8154815290600101906020018083116112ee57829003601f168201915b5050505050815260200160018201805461132490613bbc565b80601f016020809104026020016040519081016040528092919081815260200182805461135090613bbc565b801561139d5780601f106113725761010080835404028352916020019161139d565b820191906000526020600020905b81548152906001019060200180831161138057829003601f168201915b50505091835250506002820154602082015260038201546001600160a01b0381166040830152606090910190600160a01b900460ff1660048111156113e4576113e4613408565b60048111156113f5576113f5613408565b8152602001600482015481526020016005820154815260200160068201548152602001600782015481526020016008820180548060200260200160405190810160405280929190818152602001828054801561147a57602002820191906000526020600020905b81546001600160a01b0316815260019091019060200180831161145c575b50505050508152602001600982018054806020026020016040519081016040528092919081815260200182805480156114f257602002820191906000526020600020906000905b825461010083900a900460ff1615158152602060019283018181049485019490930390920291018084116114c15790505b50505050508152602001600a820180548060200260200160405190810160405280929190818152602001828054801561154a57602002820191906000526020600020905b815481526020019060010190808311611536575b50505050508152602001600b82018054806020026020016040519081016040528092919081815260200182805480156115a257602002820191906000526020600020905b81548152602001906001019080831161158e575b50505050508152602001600c820154815250508282815181106115c7576115c7613bf0565b602002602001018190525082806115dd90613c34565b9350505b806115eb81613c34565b91505061122b565b50939092509050565b600081815260056020908152604091829020600b0180548351818402810184019094528084526060939283018282801561165557602002820191906000526020600020905b815481526020019060010190808311611641575b50505050509050919050565b60056020526000908152604090208054819061167c90613bbc565b80601f01602080910402602001604051908101604052809291908181526020018280546116a890613bbc565b80156116f55780601f106116ca576101008083540402835291602001916116f5565b820191906000526020600020905b8154815290600101906020018083116116d857829003601f168201915b50505050509080600101805461170a90613bbc565b80601f016020809104026020016040519081016040528092919081815260200182805461173690613bbc565b80156117835780601f1061175857610100808354040283529160200191611783565b820191906000526020600020905b81548152906001019060200180831161176657829003601f168201915b50505050600283015460038401546004850154600586015460068701546007880154600c90980154969794966001600160a01b0385169650600160a01b90940460ff16949293919290918a565b60008181526005602090815260409182902060080180548351818402810184019094528084526060939283018282801561165557602002820191906000526020600020905b81546001600160a01b031681526001909101906020018083116118155750505050509050919050565b60006020819052908152604090208054819061185990613bbc565b80601f016020809104026020016040519081016040528092919081815260200182805461188590613bbc565b80156118d25780601f106118a7576101008083540402835291602001916118d2565b820191906000526020600020905b8154815290600101906020018083116118b557829003601f168201915b5050505050908060010180546118e790613bbc565b80601f016020809104026020016040519081016040528092919081815260200182805461191390613bbc565b80156119605780601f1061193557610100808354040283529160200191611960565b820191906000526020600020905b81548152906001019060200180831161194357829003601f168201915b50505050509080600201805461197590613bbc565b80601f01602080910402602001604051908101604052809291908181526020018280546119a190613bbc565b80156119ee5780601f106119c3576101008083540402835291602001916119ee565b820191906000526020600020905b8154815290600101906020018083116119d157829003601f168201915b505050505090806003018054611a0390613bbc565b80601f0160208091040260200160405190810160405280929190818152602001828054611a2f90613bbc565b8015611a7c5780601f10611a5157610100808354040283529160200191611a7c565b820191906000526020600020905b815481529060010190602001808311611a5f57829003601f168201915b505050600484015460058501546006860154600890960154949591949093506001600160a01b03909116915088565b611ab3613066565b600082815260056020526040902060020154611b1c5760405162461bcd60e51b815260206004820152602260248201527f74656e6465722077697468206164647265737320646f65736e27742065786973604482015261747360f01b60648201526084016106a4565b6000828152600560205260409081902081516101c08101909252805482908290611b4590613bbc565b80601f0160208091040260200160405190810160405280929190818152602001828054611b7190613bbc565b8015611bbe5780601f10611b9357610100808354040283529160200191611bbe565b820191906000526020600020905b815481529060010190602001808311611ba157829003601f168201915b50505050508152602001600182018054611bd790613bbc565b80601f0160208091040260200160405190810160405280929190818152602001828054611c0390613bbc565b8015611c505780601f10611c2557610100808354040283529160200191611c50565b820191906000526020600020905b815481529060010190602001808311611c3357829003601f168201915b50505091835250506002820154602082015260038201546001600160a01b0381166040830152606090910190600160a01b900460ff166004811115611c9757611c97613408565b6004811115611ca857611ca8613408565b81526020016004820154815260200160058201548152602001600682015481526020016007820154815260200160088201805480602002602001604051908101604052809291908181526020018280548015611d2d57602002820191906000526020600020905b81546001600160a01b03168152600190910190602001808311611d0f575b5050505050815260200160098201805480602002602001604051908101604052809291908181526020018280548015611da557602002820191906000526020600020906000905b825461010083900a900460ff161515815260206001928301818104948501949093039092029101808411611d745790505b50505050508152602001600a8201805480602002602001604051908101604052809291908181526020018280548015611dfd57602002820191906000526020600020905b815481526020019060010190808311611de9575b50505050508152602001600b8201805480602002602001604051908101604052809291908181526020018280548015611e5557602002820191906000526020600020905b815481526020019060010190808311611e41575b50505050508152602001600c820154815250509050919050565b600081815260056020526040902060030154829082906001600160a01b03808416911614611ef45760405162461bcd60e51b815260206004820152602c60248201527f796f75277265206e6f7420617574686f72697a656420746f20706572666f726d60448201526b103a3434b99030b1ba34b7b760a11b60648201526084016106a4565b6001600160a01b038416600090815260208190526040902060070154611f505760405162461bcd60e51b81526020600482015260116024820152704e6f2074656e646572732065786973747360781b60448201526064016106a4565b600083815260056020526040902060020154611fb95760405162461bcd60e51b815260206004820152602260248201527f74656e6465722077697468206164647265737320646f65736e27742065786973604482015261747360f01b60648201526084016106a4565b60008084815260056020526040902060030154600160a01b900460ff166004811115611fe757611fe7613408565b146120345760405162461bcd60e51b815260206004820152601860248201527f74656e6465722063616e6e6f742062652064656c65746564000000000000000060448201526064016106a4565b6001600160a01b0384166000908152602081905260408120600701905b81548110156121b3578482828154811061206d5761206d613bf0565b9060005260206000200154036121a15760008581526005602052604081209061209682826130ef565b6120a46001830160006130ef565b60006002830181905560038301805474ffffffffffffffffffffffffffffffffffffffffff19169055600483018190556005830181905560068301819055600783018190556120f790600884019061312c565b61210560098301600061314a565b612113600a8301600061312c565b612121600b8301600061312c565b506000600c91909101558154829061213b90600190613c4d565b8154811061214b5761214b613bf0565b906000526020600020015482828154811061216857612168613bf0565b90600052602060002001819055508180548061218657612186613c64565b600190038181906000526020600020016000905590556121b3565b806121ab81613c34565b915050612051565b505050505050565b60606000600180548060200260200160405190810160405280929190818152602001828054801561221557602002820191906000526020600020905b81546001600160a01b031681526001909101906020018083116121f7575b50939450600193505050505b6001548110156123825760005b8181101561236f5760008084838151811061224b5761224b613bf0565b60200260200101516001600160a01b03166001600160a01b031681526020019081526020016000206004015460008085858151811061228c5761228c613bf0565b60200260200101516001600160a01b03166001600160a01b0316815260200190815260200160002060040154101561235d5760008383815181106122d2576122d2613bf0565b602002602001015190508382815181106122ee576122ee613bf0565b602002602001015184848151811061230857612308613bf0565b60200260200101906001600160a01b031690816001600160a01b0316815250508084838151811061233b5761233b613bf0565b60200260200101906001600160a01b031690816001600160a01b031681525050505b8061236781613c34565b91505061222e565b508061237a81613c34565b915050612221565b50919050565b80336001600160a01b038216146123d75760405162461bcd60e51b815260206004820152601360248201527221b0b63632b91034b9903737ba1037bbb732b960691b60448201526064016106a4565b6001600160a01b038083166000908152602081905260409020600601548391166124435760405162461bcd60e51b815260206004820152601460248201527f506172747920646f6573206e6f7420657869737400000000000000000000000060448201526064016106a4565b6001600160a01b0383166000908152602081815260409091208651909161246e918391890190612fa8565b5084516124849060038301906020880190612fa8565b50505050505050565b600081815260056020908152604090912083516124b292600b9092019185019061302c565b506000818152600560205260409020600b018054806124d3576124d3613c64565b600190038181906000526020600020016000905590555050565b60008281526005602052604081206008810154825b8181101561255e57336001600160a01b031683600801828154811061252957612529613bf0565b6000918252602090912001546001600160a01b03160361254c576001935061255e565b8061255681613c34565b915050612502565b5082156125ac5783156125a75760098201805460018101825560009182526020918290209181049091018054861515601f9093166101000a92830260ff90930219169190911790555b61261a565b60405162461bcd60e51b815260206004820152602e60248201527f596f75277265206e6f7420617574686f72697a656420746f2076616c6964617460448201527f6520746869732074656e6465722e00000000000000000000000000000000000060648201526084016106a4565b5050505050565b60008281526005602052604090206003810180548391907fffffffffffffffffffffff00ffffffffffffffffffffffffffffffffffffffff16600160a01b83600481111561267157612671613408565b0217905550505050565b85336001600160a01b038216146126ca5760405162461bcd60e51b815260206004820152601360248201527221b0b63632b91034b9903737ba1037bbb732b960691b60448201526064016106a4565b6126d5600287613c7a565b876001600160a01b03163110156127545760405162461bcd60e51b815260206004820152602560248201527f696e73756666696369656e742066756e647320746f206372656174652061207460448201527f656e64657200000000000000000000000000000000000000000000000000000060648201526084016106a4565b60065460009081526005602090815260409091208651909161277a918391890190612fa8565b5084516127909060018301906020880190612fa8565b50600281018790556003810180544260048401556005830186905574ffffffffffffffffffffffffffffffffffffffffff19166001600160a01b038a16179055600680546007830155810183905560006127e86121bb565b80519091506000600a82106127fe57600a612800565b815b91505b8181101561294657336000908152602081905260409020600601546001600160a01b03168360016128348486613c4d565b61283e9190613c4d565b8151811061284e5761284e613bf0565b60200260200101516001600160a01b03161461294157600884018360016128758486613c4d565b61287f9190613c4d565b8151811061288f5761288f613bf0565b60209081029190910181015182546001808201855560009485529284200180546001600160a01b0319166001600160a01b03909216919091179055819085906128d88587613c4d565b6128e29190613c4d565b815181106128f2576128f2613bf0565b6020908102919091018101516001600160a01b031682528181019290925260400160009081206006546009909101805460018101825590835292909120909101558061293d81613c34565b9150505b612803565b6001600160a01b038b16600090815260208181526040822060068054600790920180546001810182559085529284209092015580549161298583613c34565b91905055505050505050505050505050565b600086815260056020526040902060030154879087906001600160a01b03808416911614612a1c5760405162461bcd60e51b815260206004820152602c60248201527f796f75277265206e6f7420617574686f72697a656420746f20706572666f726d60448201526b103a3434b99030b1ba34b7b760a11b60648201526084016106a4565b6001600160a01b038916600090815260208190526040902060070154612a785760405162461bcd60e51b81526020600482015260116024820152704e6f2074656e646572732065786973747360781b60448201526064016106a4565b600088815260056020526040902060020154612ae15760405162461bcd60e51b815260206004820152602260248201527f74656e6465722077697468206164647265737320646f65736e27742065786973604482015261747360f01b60648201526084016106a4565b60008089815260056020526040902060030154600160a01b900460ff166004811115612b0f57612b0f613408565b1480612b4757506003600089815260056020526040902060030154600160a01b900460ff166004811115612b4557612b45613408565b145b612b935760405162461bcd60e51b815260206004820152601860248201527f74656e6465722063616e6e6f742062652075706461746564000000000000000060448201526064016106a4565b60008881526005602090815260409091206002810189905587519091612bbd9183918a0190612fa8565b508551612bd39060018301906020890190612fa8565b50600581019490945550506006909101555050505050565b60018181548110612bfb57600080fd5b6000918252602090912001546001600160a01b0316905081565b80516000908190815b81811015612c6557848181518110612c3857612c38613bf0565b602002602001015115612c535782612c4f81613c34565b9350505b80612c5d81613c34565b915050612c1e565b50612c71600282613c7a565b821115612c82575060019392505050565b5060009392505050565b80336001600160a01b03821614612cdb5760405162461bcd60e51b815260206004820152601360248201527221b0b63632b91034b9903737ba1037bbb732b960691b60448201526064016106a4565b6001600160a01b03808316600090815260208190526040902060060154839116612d475760405162461bcd60e51b815260206004820152601460248201527f506172747920646f6573206e6f7420657869737400000000000000000000000060448201526064016106a4565b6001600160a01b038316600090815260208190526040812090612d6a82826130ef565b612d786001830160006130ef565b612d866002830160006130ef565b612d946003830160006130ef565b600060048301819055600583018190556006830180546001600160a01b0319169055612dc490600784019061312c565b6008820160009055600982016000612ddc919061312c565b505060005b600154811015612ee557336001600160a01b031660018281548110612e0857612e08613bf0565b6000918252602090912001546001600160a01b031603612ed35760018054612e31908290613c4d565b81548110612e4157612e41613bf0565b600091825260209091200154600180546001600160a01b039092169183908110612e6d57612e6d613bf0565b9060005260206000200160006101000a8154816001600160a01b0302191690836001600160a01b031602179055506001805480612eac57612eac613c64565b600082815260209020810160001990810180546001600160a01b0319169055019055612ee5565b80612edd81613c34565b915050612de1565b50505050565b606081336001600160a01b03821614612f3c5760405162461bcd60e51b815260206004820152601360248201527221b0b63632b91034b9903737ba1037bbb732b960691b60448201526064016106a4565b6001600160a01b0383166000908152602081815260409182902060090180548351818402810184019094528084529091830182828015612f9b57602002820191906000526020600020905b815481526020019060010190808311612f87575b5050505050915050919050565b828054612fb490613bbc565b90600052602060002090601f016020900481019282612fd6576000855561301c565b82601f10612fef57805160ff191683800117855561301c565b8280016001018555821561301c579182015b8281111561301c578251825591602001919060010190613001565b5061302892915061316b565b5090565b82805482825590600052602060002090810192821561301c579160200282018281111561301c578251825591602001919060010190613001565b604051806101c0016040528060608152602001606081526020016000815260200160006001600160a01b03168152602001600060048111156130aa576130aa613408565b81526020016000815260200160008152602001600081526020016000815260200160608152602001606081526020016060815260200160608152602001600081525090565b5080546130fb90613bbc565b6000825580601f1061310b575050565b601f016020900490600052602060002090810190613129919061316b565b50565b5080546000825590600052602060002090810190613129919061316b565b50805460008255601f01602090049060005260206000209081019061312991905b5b80821115613028576000815560010161316c565b80356001600160a01b038116811461319757600080fd5b919050565b6000602082840312156131ae57600080fd5b6131b782613180565b9392505050565b6000815180845260005b818110156131e4576020818501810151868301820152016131c8565b818111156131f6576000602083870101525b50601f01601f19169290920160200192915050565b60c08152600061321e60c08301896131be565b828103602084015261323081896131be565b9050828103604084015261324481886131be565b90506001600160a01b038616606084015284608084015282810360a084015261326d81856131be565b9998505050505050505050565b60006020828403121561328c57600080fd5b5035919050565b634e487b7160e01b600052604160045260246000fd5b604051601f8201601f1916810167ffffffffffffffff811182821017156132d2576132d2613293565b604052919050565b600082601f8301126132eb57600080fd5b813567ffffffffffffffff81111561330557613305613293565b613318601f8201601f19166020016132a9565b81815284602083860101111561332d57600080fd5b816020850160208301376000918101602001919091529392505050565b600080600080600060a0868803121561336257600080fd5b853567ffffffffffffffff8082111561337a57600080fd5b61338689838a016132da565b9650602088013591508082111561339c57600080fd5b6133a889838a016132da565b955060408801359150808211156133be57600080fd5b6133ca89838a016132da565b945060608801359150808211156133e057600080fd5b506133ed888289016132da565b9250506133fc60808701613180565b90509295509295909350565b634e487b7160e01b600052602160045260246000fd5b6005811061343c57634e487b7160e01b600052602160045260246000fd5b9052565b600081518084526020808501945080840160005b838110156134795781516001600160a01b031687529582019590820190600101613454565b509495945050505050565b600081518084526020808501945080840160005b83811015613479578151151587529582019590820190600101613498565b600081518084526020808501945080840160005b83811015613479578151875295820195908201906001016134ca565b60006101c082518185526134fc828601826131be565b9150506020830151848203602086015261351682826131be565b91505060408301516040850152606083015161353d60608601826001600160a01b03169052565b506080830151613550608086018261341e565b5060a083015160a085015260c083015160c085015260e083015160e085015261010080840151818601525061012080840151858303828701526135938382613440565b9250505061014080840151858303828701526135af8382613484565b9250505061016080840151858303828701526135cb83826134b6565b9250505061018080840151858303828701526135e783826134b6565b6101a095860151969095019590955250919392505050565b6000815180845260208085019450848260051b860182860160005b858110156136445783830389526136328383516134e6565b9885019892509084019060010161361a565b5090979650505050505050565b6020815260006131b760208301846135ff565b60208101613672828461341e565b92915050565b60408152600061368b60408301856135ff565b90508260208301529392505050565b6020815260006131b760208301846134b6565b60006101408083526136c18184018e6131be565b905082810360208401526136d5818d6131be565b9150508960408301526001600160a01b03891660608301526136fa608083018961341e565b60a082019690965260c081019490945260e08401929092526101008301526101209091015295945050505050565b6020808252825182820181905260009190848201906040850190845b818110156137695783516001600160a01b031683529284019291840191600101613744565b50909695505050505050565b60006101008083526137898184018c6131be565b9050828103602084015261379d818b6131be565b905082810360408401526137b1818a6131be565b905082810360608401526137c581896131be565b9150508560808301528460a08301526001600160a01b03841660c08301528260e08301529998505050505050505050565b6020815260006131b760208301846134e6565b6000806040838503121561381c57600080fd5b61382583613180565b946020939093013593505050565b60008060006060848603121561384857600080fd5b833567ffffffffffffffff8082111561386057600080fd5b61386c878388016132da565b9450602086013591508082111561388257600080fd5b5061388f868287016132da565b92505061389e60408501613180565b90509250925092565b600067ffffffffffffffff8211156138c1576138c1613293565b5060051b60200190565b600080604083850312156138de57600080fd5b823567ffffffffffffffff8111156138f557600080fd5b8301601f8101851361390657600080fd5b8035602061391b613916836138a7565b6132a9565b82815260059290921b8301810191818101908884111561393a57600080fd5b938201935b838510156139585784358252938201939082019061393f565b98969091013596505050505050565b8035801515811461319757600080fd5b6000806040838503121561398a57600080fd5b8235915061399a60208401613967565b90509250929050565b600080604083850312156139b657600080fd5b823591506020830135600581106139cc57600080fd5b809150509250929050565b60008060008060008060c087890312156139f057600080fd5b6139f987613180565b955060208701359450604087013567ffffffffffffffff80821115613a1d57600080fd5b613a298a838b016132da565b95506060890135915080821115613a3f57600080fd5b50613a4c89828a016132da565b9350506080870135915060a087013590509295509295509295565b600080600080600080600060e0888a031215613a8257600080fd5b613a8b88613180565b96506020880135955060408801359450606088013567ffffffffffffffff80821115613ab657600080fd5b613ac28b838c016132da565b955060808a0135915080821115613ad857600080fd5b50613ae58a828b016132da565b93505060a0880135915060c0880135905092959891949750929550565b60006020808385031215613b1557600080fd5b823567ffffffffffffffff811115613b2c57600080fd5b8301601f81018513613b3d57600080fd5b8035613b4b613916826138a7565b81815260059190911b82018301908381019087831115613b6a57600080fd5b928401925b82841015613b8f57613b8084613967565b82529284019290840190613b6f565b979650505050505050565b60008060408385031215613bad57600080fd5b50508035926020909101359150565b600181811c90821680613bd057607f821691505b60208210810361238257634e487b7160e01b600052602260045260246000fd5b634e487b7160e01b600052603260045260246000fd5b634e487b7160e01b600052601160045260246000fd5b60008219821115613c2f57613c2f613c06565b500190565b600060018201613c4657613c46613c06565b5060010190565b600082821015613c5f57613c5f613c06565b500390565b634e487b7160e01b600052603160045260246000fd5b600082613c9757634e487b7160e01b600052601260045260246000fd5b50049056fea2646970667358221220a272434def6893903ef1ff092b97ba50d711c5c1bf42d6377fe2081aa73e6ae064736f6c634300080d0033",
  "immutableReferences": {},
  "source": "// SPDX-License-Identifier: UNLICENSED\n\n//the version of solidity that is compatible\nimport \"./PartyContract.sol\";\nenum TenderStatus{ NEW, OPEN, CLOSED, SUSPENDED, ASSIGNED } //created---OPEN, deadline crosses---CLOSED, project is assigned ---- ASSIGNED\nimport \"./Token.sol\";\n\npragma solidity ^0.8.0;\ncontract TenderContract is PartyContract {\n    // Tender Structure\n    struct Tender {\n        string title;\n        string description;\n        uint256 budget;\n        address issuerAddress;\n        TenderStatus tenderStatus; \n        uint256 createdAt;\n        uint256 deadline;\n        uint256 totalMilestones;\n        uint256 tenderId;\n        address[] validatorsAddresses;\n        bool[] validationVotes;\n        uint256[] milestoneTimePeriods;\n        uint256[] bidIds;\n        uint256 balance;\n    }\n\n    // Token public tokenRef;\n\n    constructor() PartyContract(){\n        // tokenRef = _tokenRef;\n    }\n\n    mapping (uint256 => Tender) public tenders;\n    uint256 tenderCount = 0;\n\n    //setters and getter functions\n    function getTenderCount() public view returns(uint256){\n        return tenderCount;\n    }\n    \n    function getValidators(uint256 _tenderId) public view returns(address[] memory) {\n        return tenders[_tenderId].validatorsAddresses;\n    }\n    \n    function getTotalProjectDays(uint256 _tenderId) public view returns(uint256) {\n        uint256 sum = 0;\n        uint256[] memory milestoneTimePeriods = tenders[_tenderId].milestoneTimePeriods;\n        uint256 len = milestoneTimePeriods.length;\n        for(uint256 i=0; i < len; i++) {\n            sum += milestoneTimePeriods[i];\n        }\n        return sum;\n    }\n\n    function getBudget(uint256 _tenderId) public view returns(uint256){\n        return tenders[_tenderId].budget;\n    }\n\n    function getTenderStatus(uint256 _tenderId) public view returns(TenderStatus){\n        return tenders[_tenderId].tenderStatus;\n    }\n\n    function getDeadline(uint256 _tenderId) public view returns(uint256){\n            return tenders[_tenderId].deadline;\n    }\n\n    function getBidIds(uint256 _tenderId) public view returns(uint256[] memory){\n        return tenders[_tenderId].bidIds;\n    }\n\n    function getIssuerAddress(uint256 _tenderId) public view returns(address){\n        return tenders[_tenderId].issuerAddress;\n    }\n\n    function getTotalMilestones(uint256 _tenderId) public view returns(uint256){\n            return tenders[_tenderId].totalMilestones;\n    }\n\n    function getBidsCount(uint256 _tenderId) public view returns(uint256){\n            return tenders[_tenderId].bidIds.length;\n    }\n\n    function addBidId(uint256 _tenderId, uint256 bidId) public {\n        tenders[_tenderId].bidIds.push(bidId);\n    }\n\n    function setBidIds(uint256[] memory _tenderBidIds, uint256 _tenderId) public{\n        tenders[_tenderId].bidIds = _tenderBidIds;\n        tenders[_tenderId].bidIds.pop();\n    }\n\n    // Function for creating a tender\n    function createTender(address _partyAddress, uint256 _budget, string memory _title, string memory _description, uint256 _deadline, uint256 _totalMilestones) isOwner(_partyAddress) public {\n        require(_partyAddress.balance >= _budget/2, \"insufficient funds to create a tender\");\n        Tender storage newTender = tenders[tenderCount];\n        newTender.title = _title;\n        newTender.description = _description;\n        newTender.budget = _budget;\n        newTender.tenderStatus = TenderStatus.NEW;\n        newTender.createdAt = block.timestamp;\n        newTender.deadline = _deadline;\n        newTender.issuerAddress = _partyAddress;\n        newTender.tenderId = tenderCount;\n        newTender.totalMilestones = _totalMilestones;\n        //Sort all the parties by their trust scores\n        address[] memory sortedlist = sortByTrustScore();\n        uint len = sortedlist.length;\n        uint count = 0;\n        //If there are less than 10 parties then set number to parties to len\n        len = (len < 10)?len:10;\n        //Add the validator addresses to validatorsAddresses array, also add tenderId to tenderIdsToValidate array\n        while(count < len)\n        {\n            if(sortedlist[len-count-1] != parties[msg.sender].partyAddress)\n            {\n            newTender.validatorsAddresses.push(sortedlist[len-count-1]);\n            parties[sortedlist[len-count-1]].tenderIdsToValidate.push(tenderCount);\n            count ++;\n            }\n        }\n        parties[_partyAddress].tenderIds.push(tenderCount);\n        tenderCount++;\n    }\n\n    //Function to sort all the parties by their trust score\n    function sortByTrustScore() public view returns(address[] memory) {\n    address[] memory _party = partyAddresses;\n    for (uint i = 1; i < partyAddresses.length; i++)\n        for (uint j = 0; j < i; j++)\n            if (parties[_party[i]].trustScore < parties[_party[j]].trustScore) {\n                address x = _party[i];\n                _party[i] = _party[j];\n                _party[j] = x;\n            }\n\n    return _party;\n    }\n    \n    //Function using which validators can validate tenders\n    function validate(uint256 _tenderId, bool _vote) public {\n        bool valid = false;\n        Tender storage newTender = tenders[_tenderId];\n        uint len = newTender.validatorsAddresses.length;\n        for(uint i=0; i<len; i++)\n        {\n            if(newTender.validatorsAddresses[i] == msg.sender)\n            {\n                valid = true;\n                break;\n            }\n        }\n        if(valid)\n        {\n            if(_vote) {\n                newTender.validationVotes.push(_vote); // adds vote only if transaction is successful\n                \n            }\n        }\n        else\n        {\n            revert(\"You're not authorized to validate this tender.\");\n        }\n    }\n    \n    //Check if the tender is ongoing\n    function checkTenderValidation(uint256 _tenderId) public {\n        Tender storage newTender = tenders[_tenderId];\n        if(isValid(newTender.validationVotes)) {\n            updateTenderStatus(_tenderId, TenderStatus.OPEN);\n        }\n    }\n    \n    //Check if a tender is valid or not i.e., it got minimum 6 positive votes\n    function isValid(bool[] memory _validationVotes) public pure returns (bool) {\n        uint voteCount = 0;\n        uint256 totalValidators = _validationVotes.length;\n        for(uint i=0; i<totalValidators; i++)\n        {\n            if(_validationVotes[i])\n            {\n                voteCount++;\n            }\n        }\n\n        if(voteCount > (totalValidators/2))\n        {\n            return true;\n        }\n        return false;\n    }\n\n    function getTendersToValidate(address _partyAddress) public isOwner(_partyAddress) view returns(uint256[] memory){\n        return(parties[_partyAddress].tenderIdsToValidate);\n    }\n\n    function getAllActiveTenders() public view returns (Tender[] memory, uint256){\n        require(tenderCount > 0, \"No tenders exists\");\n        uint256 count=0;\n        Tender[] memory tendersList = new Tender[](tenderCount);\n        for (uint256 i = 0; i < tenderCount; i++) {\n            if(tenders[i].tenderStatus == TenderStatus.OPEN){\n                 tendersList[i] = tenders[i];\n                 count++;\n            }\n        }\n        return(tendersList, count);\n    }\n\n    function getMyTenders(address _partyAddress) public view returns ( Tender[] memory){\n        require(parties[_partyAddress].tenderIds.length > 0, \"No tenders exists\");\n        uint256[] memory partyTenderIds = parties[_partyAddress].tenderIds;\n        Tender[] memory tendersList = new Tender[](partyTenderIds.length);\n        for (uint256 i = 0; i < partyTenderIds.length; i++) {\n            tendersList[i] = tenders[partyTenderIds[i]];\n        }\n        return(tendersList);\n    }\n\n    function getTenderDetails(uint256 _tenderId) public view returns ( Tender memory){\n        require(tenders[_tenderId].budget > 0 , \"tender with address doesn't exists\");\n        return(tenders[_tenderId]);\n    }\n\n    function updateTenderStatus(uint256 _tenderId, TenderStatus _tenderStatus) public {\n        Tender storage updatedTender = tenders[_tenderId];\n        updatedTender.tenderStatus = _tenderStatus;\n    }\n\n    function updateTender(address _partyAddress, uint256 _tenderId, uint256 _budget, string memory _title, string memory _description, uint256 _deadline, uint256 _totalMilestones) public isTenderOwner(_partyAddress, _tenderId){\n        require(parties[_partyAddress].tenderIds.length > 0, \"No tenders exists\");\n        require(tenders[_tenderId].budget > 0 , \"tender with address doesn't exists\");\n        require(tenders[_tenderId].tenderStatus == TenderStatus.NEW ||\n                tenders[_tenderId].tenderStatus == TenderStatus.SUSPENDED , \"tender cannot be updated\");\n        Tender storage updatedTender = tenders[_tenderId];\n        updatedTender.budget = _budget;\n        updatedTender.title = _title;\n        updatedTender.description = _description;\n        updatedTender.deadline = _deadline;\n        updatedTender.totalMilestones = _totalMilestones;\n    }\n\n    function deleteTender(address _partyAddress, uint256 _tenderId) public isTenderOwner(_partyAddress, _tenderId){ \n        require(parties[_partyAddress].tenderIds.length > 0, \"No tenders exists\");\n        require(tenders[_tenderId].budget > 0 , \"tender with address doesn't exists\");\n        require(tenders[_tenderId].tenderStatus == TenderStatus.NEW , \"tender cannot be deleted\");\n        uint256[] storage _tenderIds = parties[_partyAddress].tenderIds;\n        for (uint i = 0; i < _tenderIds.length; i++){\n            if(_tenderIds[i] == _tenderId){\n                delete tenders[_tenderId];\n                _tenderIds[i] = _tenderIds[_tenderIds.length - 1];\n                _tenderIds.pop();\n                break;\n            }\n        }\n    }\n\n    // @todo - add modifer for above functions\n\n    modifier isTenderOwner(address _partyAddress, uint256 _tenderId) {\n        require(tenders[_tenderId].issuerAddress == _partyAddress, \"you're not authorized to perform this action\");\n        _;\n    }\n\n    \n}\n",
  "sourcePath": "C:\\dr yoon\\blockchain-based-contracting-system-master\\contracts\\TenderContract.sol",
  "compiler": {
    "name": "solc",
    "version": "0.8.13+commit.abaa5c0e.Emscripten.clang"
  },
  "schemaVersion": "3.4.16",
  "updatedAt": "2024-05-05T22:47:29.439Z",
  "networkType": "ethereum",
  "devdoc": {
    "kind": "dev",
    "methods": {},
    "version": 1
  },
  "userdoc": {
    "kind": "user",
    "methods": {},
    "version": 1
  }
}