{
  "contractName": "Token",
  "abi": [
    {
      "inputs": [
        {
          "internalType": "uint256",
          "name": "total",
          "type": "uint256"
        }
      ],
      "stateMutability": "nonpayable",
      "type": "constructor"
    },
    {
      "anonymous": false,
      "inputs": [
        {
          "indexed": true,
          "internalType": "address",
          "name": "owner",
          "type": "address"
        },
        {
          "indexed": true,
          "internalType": "address",
          "name": "spender",
          "type": "address"
        },
        {
          "indexed": false,
          "internalType": "uint256",
          "name": "value",
          "type": "uint256"
        }
      ],
      "name": "Approval",
      "type": "event"
    },
    {
      "anonymous": false,
      "inputs": [
        {
          "indexed": true,
          "internalType": "address",
          "name": "from",
          "type": "address"
        },
        {
          "indexed": true,
          "internalType": "address",
          "name": "to",
          "type": "address"
        },
        {
          "indexed": false,
          "internalType": "uint256",
          "name": "value",
          "type": "uint256"
        }
      ],
      "name": "Transfer",
      "type": "event"
    },
    {
      "inputs": [],
      "name": "decimals",
      "outputs": [
        {
          "internalType": "uint8",
          "name": "",
          "type": "uint8"
        }
      ],
      "stateMutability": "view",
      "type": "function",
      "constant": true
    },
    {
      "inputs": [],
      "name": "name",
      "outputs": [
        {
          "internalType": "string",
          "name": "",
          "type": "string"
        }
      ],
      "stateMutability": "view",
      "type": "function",
      "constant": true
    },
    {
      "inputs": [],
      "name": "symbol",
      "outputs": [
        {
          "internalType": "string",
          "name": "",
          "type": "string"
        }
      ],
      "stateMutability": "view",
      "type": "function",
      "constant": true
    },
    {
      "inputs": [],
      "name": "totalSupply",
      "outputs": [
        {
          "internalType": "uint256",
          "name": "",
          "type": "uint256"
        }
      ],
      "stateMutability": "view",
      "type": "function",
      "constant": true
    },
    {
      "inputs": [
        {
          "internalType": "address",
          "name": "tokenOwner",
          "type": "address"
        }
      ],
      "name": "balanceOf",
      "outputs": [
        {
          "internalType": "uint256",
          "name": "",
          "type": "uint256"
        }
      ],
      "stateMutability": "view",
      "type": "function",
      "constant": true
    },
    {
      "inputs": [
        {
          "internalType": "address",
          "name": "receiver",
          "type": "address"
        },
        {
          "internalType": "uint256",
          "name": "numTokens",
          "type": "uint256"
        }
      ],
      "name": "transfer",
      "outputs": [
        {
          "internalType": "bool",
          "name": "",
          "type": "bool"
        }
      ],
      "stateMutability": "nonpayable",
      "type": "function"
    },
    {
      "inputs": [
        {
          "internalType": "address",
          "name": "delegate",
          "type": "address"
        },
        {
          "internalType": "uint256",
          "name": "numTokens",
          "type": "uint256"
        }
      ],
      "name": "approve",
      "outputs": [
        {
          "internalType": "bool",
          "name": "",
          "type": "bool"
        }
      ],
      "stateMutability": "nonpayable",
      "type": "function"
    },
    {
      "inputs": [
        {
          "internalType": "address",
          "name": "owner",
          "type": "address"
        },
        {
          "internalType": "address",
          "name": "delegate",
          "type": "address"
        }
      ],
      "name": "allowance",
      "outputs": [
        {
          "internalType": "uint256",
          "name": "",
          "type": "uint256"
        }
      ],
      "stateMutability": "view",
      "type": "function",
      "constant": true
    },
    {
      "inputs": [
        {
          "internalType": "address",
          "name": "owner",
          "type": "address"
        },
        {
          "internalType": "address",
          "name": "buyer",
          "type": "address"
        },
        {
          "internalType": "uint256",
          "name": "numTokens",
          "type": "uint256"
        }
      ],
      "name": "transferFrom",
      "outputs": [
        {
          "internalType": "bool",
          "name": "",
          "type": "bool"
        }
      ],
      "stateMutability": "nonpayable",
      "type": "function"
    }
  ],
  "bytecode": "0x608060405234801561001057600080fd5b506040516106c83803806106c883398101604081905261002f91610037565b600355610050565b60006020828403121561004957600080fd5b5051919050565b6106698061005f6000396000f3fe608060405234801561001057600080fd5b50600436106100a35760003560e01c8063313ce5671161007657806395d89b411161005b57806395d89b4114610185578063a9059cbb146101c1578063dd62ed3e146101d457600080fd5b8063313ce5671461014257806370a082311461015c57600080fd5b806306fdde03146100a8578063095ea7b3146100fa57806318160ddd1461011d57806323b872dd1461012f575b600080fd5b6100e46040518060400160405280600a81526020017f52657075746174696f6e0000000000000000000000000000000000000000000081525081565b6040516100f191906104b3565b60405180910390f35b61010d610108366004610524565b61020d565b60405190151581526020016100f1565b6003545b6040519081526020016100f1565b61010d61013d36600461054e565b610279565b61014a601281565b60405160ff90911681526020016100f1565b61012161016a36600461058a565b6001600160a01b031660009081526020819052604090205490565b6100e46040518060400160405280600381526020017f424944000000000000000000000000000000000000000000000000000000000081525081565b61010d6101cf366004610524565b6103c1565b6101216101e23660046105a5565b6001600160a01b03918216600090815260016020908152604080832093909416825291909152205490565b3360008181526001602090815260408083206001600160a01b038716808552925280832085905551919290917f8c5be1e5ebec7d5bd14f71427d1e84f3dd0314c0f7b2291e5b200ac8c7c3b925906102689086815260200190565b60405180910390a350600192915050565b6001600160a01b03831660009081526020819052604081205482111561029e57600080fd5b6001600160a01b03841660009081526001602090815260408083203384529091529020548211156102ce57600080fd5b6001600160a01b0384166000908152602081905260409020546102f19083610471565b6001600160a01b0385166000908152602081815260408083209390935560018152828220338352905220546103269083610471565b6001600160a01b03808616600090815260016020908152604080832033845282528083209490945591861681529081905220546103639083610494565b6001600160a01b038481166000818152602081815260409182902094909455518581529092918716917fddf252ad1be2c89b69c2b068fc378daa952ba7f163c4a11628f55a4df523b3ef910160405180910390a35060019392505050565b336000908152602081905260408120548211156103dd57600080fd5b336000908152602081905260409020546103f79083610471565b33600090815260208190526040808220929092556001600160a01b038516815220546104239083610494565b6001600160a01b038416600081815260208181526040918290209390935551848152909133917fddf252ad1be2c89b69c2b068fc378daa952ba7f163c4a11628f55a4df523b3ef9101610268565b600082821115610483576104836105d8565b61048d8284610604565b9392505050565b6000806104a1838561061b565b90508381101561048d5761048d6105d8565b600060208083528351808285015260005b818110156104e0578581018301518582016040015282016104c4565b818111156104f2576000604083870101525b50601f01601f1916929092016040019392505050565b80356001600160a01b038116811461051f57600080fd5b919050565b6000806040838503121561053757600080fd5b61054083610508565b946020939093013593505050565b60008060006060848603121561056357600080fd5b61056c84610508565b925061057a60208501610508565b9150604084013590509250925092565b60006020828403121561059c57600080fd5b61048d82610508565b600080604083850312156105b857600080fd5b6105c183610508565b91506105cf60208401610508565b90509250929050565b634e487b7160e01b600052600160045260246000fd5b634e487b7160e01b600052601160045260246000fd5b600082821015610616576106166105ee565b500390565b6000821982111561062e5761062e6105ee565b50019056fea264697066735822122089105b832dcf5857f191d5113185be41fe02d01489ae542f3c961da8510ffc2a64736f6c634300080d0033",
  "immutableReferences": {},
  "source": "// SPDX-License-Identifier: UNLICENSED\n\n//the version of solidity that is compatible\n\npragma solidity ^0.8.0;\n\ninterface IERC20 {\n\n    function totalSupply() external view returns (uint256);\n    function balanceOf(address account) external view returns (uint256);\n    function allowance(address owner, address spender) external view returns (uint256);\n\n    function transfer(address recipient, uint256 amount) external returns (bool);\n    function approve(address spender, uint256 amount) external returns (bool);\n    function transferFrom(address sender, address recipient, uint256 amount) external returns (bool);\n\n\n    event Transfer(address indexed from, address indexed to, uint256 value);\n    event Approval(address indexed owner, address indexed spender, uint256 value);\n    }\n\n\ncontract Token is IERC20 {\n    using SafeMath for uint256;\n\n    string public constant name = \"Reputation\";\n    string public constant symbol = \"BID\";\n    uint8 public constant decimals = 18;\n\n    mapping(address => uint256) balances;\n    mapping(address => mapping (address => uint256)) allowed;\n    address admin;\n\n    uint256 totalSupply_;\n\n    constructor(uint256 total)  {\n        totalSupply_ = total;\n    }\n\n    function totalSupply() public override view returns (uint256) {\n        return totalSupply_;\n    }\n\n    function balanceOf(address tokenOwner) public override view returns (uint256) {\n        return balances[tokenOwner];\n    }\n\n//If party get positive feedback then from admin account to party account token will transfer and if they get negative feedback then from that party account to admin aacount token will transfer\n    function transfer(address receiver, uint256 numTokens) public override returns (bool) {\n        require(numTokens <= balances[msg.sender]);\n        balances[msg.sender] = balances[msg.sender].sub(numTokens);\n        balances[receiver] = balances[receiver].add(numTokens);\n        emit Transfer(msg.sender, receiver, numTokens);\n        return true;\n    }\n\n//Admin approve any party to transfer token from admin account to there own account(party account)\n    function approve(address delegate, uint256 numTokens) public override returns (bool) {\n        // require(msg.sender==admin);\n        allowed[msg.sender][delegate] = numTokens;\n        emit Approval(msg.sender, delegate, numTokens);\n        return true;\n    }\n\n//it returns number of tokens which is allow by admin to particular party\n    function allowance(address owner, address delegate) public override view returns (uint) {\n        return allowed[owner][delegate];\n    }\n\n//Here if in our account if there is 0 token then also we can tranfer token from one account to other account but  those number of token transformation is allow  by admin\n//in this app, as of now we not use this function\n    function transferFrom(address owner, address buyer, uint256 numTokens) public override returns (bool) {\n        require(numTokens <= balances[owner]);\n        require(numTokens <= allowed[owner][msg.sender]);\n\n        balances[owner] = balances[owner].sub(numTokens);\n        allowed[owner][msg.sender] = allowed[owner][msg.sender].sub(numTokens);\n        balances[buyer] = balances[buyer].add(numTokens);\n        emit Transfer(owner, buyer, numTokens);\n        return true;\n    }\n}\n\nlibrary SafeMath {\n    function sub(uint256 a, uint256 b) internal pure returns (uint256) {\n      assert(b <= a);\n      return a - b;\n    }\n\n    function add(uint256 a, uint256 b) internal pure returns (uint256) {\n      uint256 c = a + b;\n      assert(c >= a);\n      return c;\n    }\n}\n",
  "sourcePath": "C:\\dr yoon\\blockchain-based-contracting-system-master\\contracts\\Token.sol",
  "compiler": {
    "name": "solc",
    "version": "0.8.13+commit.abaa5c0e.Emscripten.clang"
  },
  "schemaVersion": "3.4.16",
  "updatedAt": "2024-05-05T22:47:29.482Z",
  "networkType": "ethereum",
  "devdoc": {
    "kind": "dev",
    "methods": {},
    "version": 1
  },
  "userdoc": {
    "kind": "user",
    "methods": {},
    "version": 1
  }
}